:020000040000FA
:060000000A128A11122809
:10000800FE00030E83120313D2000408D3000A086B
:10001800D4007F08D5000A128A15692F0A128A119E
:1000280015280A128A11FD270A128A11EA000A12F3
:100038008A11FE270A128A11EB000A128A11FF2779
:100048000A128A11EC008313B8308400CC300A12EB
:100058008A15D3210A128A11563084006A300A128E
:100068008A15D3210A128A1183010A128A15152DBD
:100078008312031329088039AE002E08B30029081B
:10008800AE002E07AF002F08B900A81F4C284D2836
:100098004E28391439080319522853286228390A76
:1000A800031D5728582860280030A9000030A800F0
:1000B8000030A7000030A600A8176A280030A90061
:1000C8000030A8000030A7000030A6002D088039B5
:1000D800AE002E08B3062D08AE002E07AF002F087D
:1000E800B800AC1F782879287A28381438080319FA
:1000F8007E287F288E28380A031D832884288C2888
:100108000030AD000030AC000030AB000030AA0079
:10011800AC1796280030AD000030AC000030AB00C2
:100128000030AA00380803199A289B28A028390803
:10013800031D9F28A028A9280030A9000030A80086
:100148000030A7000030A6009C2B2608AE002E0821
:10015800F0002C080A128A1539230A128A1171082C
:1001680083120313BF007008BE003E08AE00AF0143
:10017800B001B1013108B7003008B6002F08B5004A
:100188002E08B4003F08AE00AF01B001B10131083C
:10019800BD003008BC002F08BB002E08BA00270895
:1001A800AE002E08F0002B080A128A1539230A120D
:1001B8008A11710883120313BF007008BE003E083D
:1001C800AE00AF01B001B1012E08B4072F0803112A
:1001D8000318013E0319F128B50730080311031865
:1001E800013E0319F828B607310803110318013E28
:1001F8000319FF28B7073F08AE00AF01B001B101EE
:100208002E08BA072F0803110318013E03190D29F8
:10021800BB07300803110318013E03191429BC0752
:10022800310803110318013E03191B29BD072808CB
:10023800AE002E08F0002A080A128A1539230A127D
:100248008A11710883120313BF007008BE003E08AC
:10025800AE00AF01B001B1012E08B4072F08031199
:100268000318013E03193929B5073008031103188B
:10027800013E03194029B607310803110318013E4E
:1002880003194729B7073F08AE00AF01B001B10114
:100298002E08BA072F0803110318013E0319552920
:1002A800BB07300803110318013E03195C29BC077A
:1002B800310803110318013E03196329BD070830EB
:1002C800AE000310B40DB50DB60DB70DAE0B652914
:1002D8002708AE002E08F0002A080A128A153923CA
:1002E8000A128A11710883120313BF007008BE0036
:1002F8003E08AE003F08AF00B001B1012E08B407B8
:100308002F0803110318013E03198B29B50730087C
:1003180003110318013E03199229B6073108031186
:100328000318013E03199929B7072608AE002E08BD
:10033800F0002B080A128A1539230A128A1171084B
:1003480083120313BF007008BE003E08AE003F08CA
:10035800AF00B001B1012E08B4072F08031103182C
:10036800013E0319B829B507300803110318013EE7
:100378000319BF29B607310803110318013E0319F1
:10038800C629B7070830AE000310B40DB50DB60D79
:10039800B70DAE0BC8292608AE002E08F0002A08B3
:1003A8000A128A1539230A128A1171088312031353
:1003B800BF007008BE003E08AE003F08AF00B001A5
:1003C800B1012E08B4072F0803110318013E0319C1
:1003D800EE29B507300803110318013E0319F52962
:1003E800B607310803110318013E0319FC29B707A2
:1003F8002708AE002E08F0002C080A128A153923A7
:100408000A128A11710883120313BF007008BE0014
:100418003E08AE003F08AF00B001B1012E08BA0790
:100428002F0803110318013E03191B2ABB073008C4
:1004380003110318013E0319222ABC0731080311CE
:100448000318013E0319292ABD072808AE002E0803
:10045800F0002B080A128A1539230A128A1171082A
:1004680083120313BF007008BE003E08AE003F08A9
:10047800AF00B001B1012E08BA072F080311031805
:10048800013E0319482ABB07300803110318013E2F
:1004980003194F2ABC07310803110318013E031939
:1004A800562ABD072808AE002E08F0002C080A12AC
:1004B8008A1539230A128A11710883120313BF009F
:1004C8007008BE003E08AE003F08AF00B001B101A1
:1004D80008300310AE0DAF0DB00DB10DFF3E031D7A
:1004E8006D2A2E08BA072F0803110318013E0319B5
:1004F8007E2ABB07300803110318013E0319852A19
:10050800BC07310803110318013E03198C2ABD07E3
:100518003408AE003508AF003608B0003708B1001F
:1005280018300310B10CB00CAF0CAE0CFF3E031D1D
:10053800952A2E08BA072F0803110318013E03193C
:10054800A62ABB07300803110318013E0319AD2A78
:10055800BC07310803110318013E0319B42ABD076B
:100568000830AE000310B40DB50DB60DB70DAE0BC7
:10057800B62A39083807AE00AF01AF0D2E08823E03
:10058800BE002F080318013EFF3EBF00E82A0130D5
:10059800AE000310BA0DBB0DBC0DBD0DAE0BCD2AC0
:1005A800B71FD72AD82AD92A3A140130AE00031027
:1005B800B40DB50DB60DB70DAE0BDB2AFF30BE0777
:1005C8000318BF0AFF30BF07BC1FEB2AEC2ACB2A4F
:1005D800B801B71FF02AF12A0D2BFF303405AE0001
:1005E800FF303505AF00FF303605B0007F303705E6
:1005F800B100310830042F042E040319042B052BF5
:10060800082BB801B80A0D2B3A1C0B2B0C2B0D2B01
:10061800052B38080319112B122B432B0130BA076D
:10062800003003180130BB07003003180130BC0745
:10063800003003180130BD073D1C232B242B432B0E
:100648003A08AE003B08AF003C08B0003D08B100D6
:100658000130B200310DB10CB00CAF0CAE0CB20BC6
:100668002E2B3108BD003008BC002F08BB002E0817
:10067800BA000130BE070318BF0A0030BF073F08A1
:10068800803AFF0080307F02031D4C2BFF303E0272
:10069800031C4F2B502B5B2B7F3083120313BD00A1
:1006A8008030BC000030BB000030BA00902B8312B1
:1006B80003133F08803AFF0080307F02031D662B3A
:1006C80001303E020318692B6A2B762B0030831207
:1006D8000313BD000030BC000030BB000030BA007E
:1006E800B301902B831203133E08AE002E08B90005
:1006F800FF30BA05FF30BB057F30BC050030BD05B3
:10070800391C872B882B892BBC173908AE0003109E
:100718002E0CAF002F08BD003308AE002E08BD0414
:100728003D08A9003C08A8003B08A7003A08A60015
:100738000800831203132D088039AE002E08B70075
:100748002D08AE002E07AF002F08BE00AC1FAD2B42
:10075800AE2BAF2B3E143E080319B32BB42BC42B7E
:100768003E0A031DB82BB92BC12B0030AD00003059
:10077800AC000030AB000030AA00AC17AD01CC2BA8
:100788000030AD000030AC000030AB000030AA00F3
:1007980029088039AE002E08B7062908AE002E07B2
:1007A800AF002F08BF00A81FDA2BDB2BDC2B3F1470
:1007B8003F080319E02BE12BF12B3F0A031DE52B22
:1007C800E62BEE2B0030A9000030A8000030A7006F
:1007D8000030A600A817A901F92B0030A9000030A5
:1007E800A8000030A7000030A60029082804270424
:1007F8002604031D002C012C1A2C0030AD000030FB
:10080800AC000030AB000030AA008030AC047F3070
:10081800AD043708AE002E08AD042D08A9002C0839
:10082800A8002B08A7002A08A600792D3E08031D5A
:100838001E2C1F2C282C0030A9000030A8000030E6
:10084800A7000030A600792D3E08AE00AF012F08A2
:10085800B1003F082E02B000031CB10330087F3EF0
:10086800B80031080318013E003EB9002D08B60053
:100878002C08B5002B08B4002A08B3000030AD00DE
:100888000030AC000030AB000030AA000030BD00E2
:100898000030BC000030BB000030BA00BF019E2C05
:1008A8003F080319582C592C792C0130AE0003103D
:1008B800B30DB40DB50DB60DAE0B5B2C0130AE000B
:1008C8000310AA0DAB0DAC0DAD0DAE0B642CBD1F06
:1008D8006E2C6F2C702C2A140130AE000310BA0D48
:1008E800BB0DBC0DBD0DAE0B722C29083602031DC5
:1008F800872C28083502031D872C27083402031D7E
:10090800872C26083302031C8A2C8B2C9A2C3D1723
:100918002608B3022708031C270FB4022808031C63
:10092800280FB5022908031C290FB6020130AE00B2
:100938002E08BF071A303F02031CA32CA42C542CEA
:1009480036083504340433040319AB2CAC2CCB2CF7
:100958003A14CB2C0130AE000310AA0DAB0DAC0D30
:10096800AD0DAE0BB02CBD1FBA2CBB2CBC2C2A1461
:100978000130AE000310BA0DBB0DBC0DBD0DAE0BA2
:10098800BE2CFF30B8070318B90AFF30B907AC1FEF
:10099800CE2CCF2CAE2CBF01BD1FD32CD42CF02CC9
:1009A800FF303A05AE00FF303B05AF00FF303C0595
:1009B800B0007F303D05B100310830042F042E040B
:1009C8000319E72CE82CEB2CBF01BF0AF02C2A1CDA
:1009D800EE2CEF2CF02CE82C3F080319F42CF52C06
:1009E800262D0130AA07003003180130AB0700306C
:1009F80003180130AC07003003180130AD072D1C77
:100A0800062D072D262D2A08AE002B08AF002C082E
:100A1800B0002D08B1000130B200310DB10CB00C9E
:100A2800AF0CAE0CB20B112D3108AD003008AC0084
:100A38002F08AB002E08AA000130B8070318B90A1E
:100A48000030B9073908803AFF0080307F02031D63
:100A58002F2DFF303802031C322D332D412DFF304E
:100A680083120313B8000030B9000030AD00003025
:100A7800AC000030AB000030AA0083120313390821
:100A8800803AFF0080307F02031D4C2D0130380270
:100A980003184F2D502D5D2D83120313B801B90192
:100AA8000030AD000030AC000030AB000030AA00D0
:100AB800B701831203133808AE002E08BE003E1C8F
:100AC800662D672D692DAC176D2D7F30AE002E0871
:100AD800AC053E08AE0003102E0CAF002F08AD0089
:100AE8003708AE002E08AD04112C0800013083121F
:100AF8000313CB004B08E90764306906031D852DF5
:100B0800862D342E02300A128A1560230A128A11A1
:100B1800700883120313CB007108CC00CD01CE01FD
:100B28004E08F8004D08F7004C08F6004B08F50091
:100B380000300A128A1136260A128A11780883129E
:100B48000313AD007708AC007608AB007508AA005F
:100B58004030A9009C30A8007A30A700E130A600F8
:100B68000A128A113C200A128A11831203132908D7
:100B7800C3002808C2002708C1002608C0000A12BE
:100B88008A15ED260A128A11831203135D08CF0015
:100B98004F07B83E8400400883138000840A410848
:100BA80080005D08CB004B07B83E84000008CC00ED
:100BB800840A0008CD004C08F5004D08F600F7013E
:100BC800F80100300A128A1136260A128A117808AA
:100BD80083120313AD007708AC007608AB007508E4
:100BE800AA004130A9002030A8000030A70000303A
:100BF800A6000A128A119D230A128A11831203136E
:100C08002908C3002808C2002708C1002608C00018
:100C18000A128A15ED260A128A11831203135D0837
:100C2800CE004E07B83E8400400883138000840A33
:100C3800410880000130CB004B08DD07E9010A308C
:100C48005D06031D282E292E2A2EDD010A128A157B
:100C580088230A128A1183120313CB004B08DC0085
:100C68005C08080083120313A000200803193D2E16
:100C78003E2E522EF81F412E422E522E7509A200EA
:100C88007609A3007709A4007809A500A20A031928
:100C9800A30A0319A40A0319A50A5A2E7808A5005D
:100CA8007708A4007608A3007508A20078087704DE
:100CB80076047504031D612E622E6B2E0030F80039
:100CC8000030F7000030F6000030F500F12E9630C5
:100CD800F9007908A1007D2E0130F9007908A107F3
:100CE80001300310A50CA40CA30CA20CFF3E031D9D
:100CF800752EFE302505031D822E832E702E9F2E05
:100D08000130F9007908A1070130A2070030031863
:100D18000130A307003003180130A407003003187E
:100D28000130A50701300310A50CA40CA30CA20CDC
:100D3800FF3E031D972EFF302505031DA42EA52E6B
:100D4800842EB12E0130A1020130F9000310A20D4A
:100D5800A30DA40DA50DF90BAA2EA41BB42EB52E18
:100D6800BB2E023021020318BA2EBB2EA62E211844
:100D7800BE2EBF2EC72EFF30A205FF30A3057F3041
:100D8800A405FF30A5050310A10C2108F900FA01FC
:100D9800FB01FC0118300310F90DFA0DFB0DFC0DD9
:100DA800FF3E031DCF2E7908A2047A08A3047B080E
:100DB800A4047C08A50420080319E32EE42EE92ED8
:100DC800F81FE72EE82EE92EA5172508F8002408B5
:100DD800F7002308F6002208F5000800831603131D
:100DE800AA01A31FF82EF92E062FA009A109A2090E
:100DF800A309A00A0319A10A0319A20A0319A30A3D
:100E0800AA01AA0AA71F092F0A2F192FA409A509A1
:100E1800A609A709A40A0319A50A0319A60A03190A
:100E2800A70A0130A8002808AA060030AE00003042
:100E3800AD000030AC000030AB00230822042104D0
:100E480020040319282F292F762FA901A90A392F41
:100E58000130A8000310A00DA10DA20DA30DA80B31
:100E68002E2F0130A8002808A907A31F3C2F3D2FCB
:100E78002C2F0130A8000310AB0DAC0DAD0DAE0D3D
:100E8800A80B3F2F23082702031D542F22082602F0
:100E9800031D542F21082502031D542F2008240266
:100EA800031C572F582F672F2008A4022108031C62
:100EB800210FA5022208031C220FA6022308031CE7
:100EC800230FA7022B1401300310A30CA20CA10CB2
:100ED800A00CFF3E031D682F0130A902031D752FCA
:100EE800762F3D2F2A0803197A2F7B2F862FAB09DF
:100EF800AC09AD09AE09AB0A0319AC0A0319AD0A6E
:100F08000319AE0A2E08A3002D08A2002C08A10080
:100F18002B08A0000800FC000130F90079088312B2
:100F28000313E80732306806031D9B2F9C2FFC2F04
:100F3800EC2F0A30F0000030F1007C08F900FA01CB
:100F48007908F2007A08F3000A128A151A260A129A
:100F58008A117008FB007B0883120313E200051650
:100F6800DF30F9007908850562080A128A15BB2561
:100F78000A128A11831203138800E801E001E00ACB
:100F8800FC2F0A30F0000030F1007C08F900FA016B
:100F98007908F2007A08F3000A128A1562250A1203
:100FA8008A117008FB007B0883120313E100851681
:100FB800EF30F9007908850561080A128A15BB2502
:100FC8000A128A11831203138800E801E001FC2F3A
:100FD8006008F900FA017A08003A0319F42FFC2F87
:100FE8007908003A03199D2F013A0319C52FFC2FE0
:080FF80008000134013401344A
:10137E00831203131215833091000800FB30F00026
:10138E0070088312031392050800831603130615C3
:10139E00861406140B16080064008001840A0406E5
:1013AE00031900340406D4290A128A1514220A12CB
:1013BE008A1583160313111408000A128A151422B3
:1013CE000A128A1583160313111508000A128A15BC
:1013DE0021220A128A1583160313111408000A1209
:1013EE008A1521220A128A15831603131115080075
:1013FE000A128A1598220A128A15831603130515E6
:10140E000800831203138801EF30F0007008850581
:10141E00DF30F000700885050800831603131419D9
:10142E00192A1A2A142A11081F39031D1F2A202AC5
:10143E00142A0800831603131419262A272A212A90
:10144E0011081F39031D2C2A2D2A212A0800831268
:10145E0003138C1183160313911583128C1D382AD6
:10146E00392A342A8C1113080800DF30F000700876
:10147E00831203138705FB30F00070088705EF30E9
:10148E00F000700886050800F0000A128A15142272
:10149E000A128A1570088312031393000A128A1512
:1014AE0014220A128A150800003083160313B200A4
:1014BE000130B1008630B000A030AF000A128A159C
:1014CE001D240A128A15080083160313A0000A129F
:1014DE008A1521220A128A158316031320088312F5
:1014EE00031393000A128A1521220A128A15080084
:1014FE000130F000700883120313E707C830670647
:10150E00031D8A2A8B2A972A06198E2A8F2A912A38
:10151E00EC01962A8618942A952A962AEB01E70161
:10152E000800831203139F171F17831603131F1729
:10153E009F17FE30A00020089F05FD30A000200858
:10154E009F05FB30A00020089F05F730A000200863
:10155E009F05831203131F1408000A128A15DB213C
:10156E000A128A15A2300A128A154B220A128A15FD
:10157E0071080A128A154B220A128A1573080A126A
:10158E008A154B220A128A150A128A15E4210A12AA
:10159E008A1508008316031388018312031388012A
:1015AE00EF3083160313A00020088505EF30A0004E
:1015BE002008831203138505DF3083160313A00062
:1015CE0020088505DF30A00020088312031385054F
:1015DE000800FB3083160313A000200883120313A8
:1015EE0092059214FE3083160313A0002008831276
:1015FE0003139205833091008B170B17FD30831662
:10160E000313A0002008831203138C058316031303
:10161E008C148312031312150800DF308316031384
:10162E00A00020088705DF30A000200883120313D6
:10163E008705FB3083160313A00020088705FB30B7
:10164E00A0002008831203138705EF3083160313BF
:10165E00A00020088605EF30A00020088312031397
:10166E0086050800F800F401F5017008F200F30198
:10167E007208F6007308F700781C462B472B4D2B8B
:10168E007608F4070318F50A7708F50701300310FA
:10169E00F60DF70DFF3E031D4E2B0310F80C7808C8
:1016AE00031D5A2B5B2B432B7508F1007408F000B9
:1016BE000800F400F730F2007208831203139F053E
:1016CE00EF30F20072089F05DF30F20072089F05BE
:1016DE007408F20002300310F20DFF3E031D722B50
:1016EE000310720DF30073089F041F151F19802B32
:1016FE00812B7D2B1E08F100831603131E08F000AC
:10170E000800FD01FB01FC01FD017D08F8007807D2
:10171E00B83E840083130008F900840A0008FA001A
:10172E007B087907FB007C0803187C0A7A07FC000B
:10173E000130F8007808FD070A307D02031CA82B43
:10174E00A92B8C2B0A30F0000030F1007C08F3003E
:10175E007B08F2000A128A15D1240A128A15700823
:10176E0008000A128A15ED210A128A15A2300A12F1
:10177E008A156B220A128A158316031321080A1280
:10178E008A156B220A128A150A128A15ED210A127F
:10179E008A15A3300A128A156B220A128A150A12AA
:1017AE008A152E220A128A1583160313A300230804
:1017BE00A4000A128A15F6210A128A15831603133B
:1017CE0024080800072C0130D6070318D70A00306A
:1017DE00D707E8305606033003195706031DF82BBA
:1017EE00F92B1C2C1030F00070088606D601D7019C
:1017FE001C2C0616FD2BEF30F000700886051C2CF5
:10180E00831203135E08F000F1017108003A031908
:10181E00112C1C2C7008003A0319EA2B013A0319FB
:10182E00002C033A0319022C1C2C080083120313FC
:10183E0094169415831603132F08B3003008B400C2
:10184E003108B5003208B60002300310B30DB40DE6
:10185E00B50DB60DFF3E031D2C2C3608A300350822
:10186E00A2003408A1003308A0000030A7007A308F
:10187E00A6001230A5000030A4000A128A11F2262A
:10188E000A128A15831603132008FF3E930087154C
:10189E0007160800F300831203136608FB3EF000E0
:1018AE00FF3003180030F1007108803A803C031DB0
:1018BE00622C700873020318652C662C6F2C831231
:1018CE0003138716FB30F00070088705DE018E2C9F
:1018DE00831203136608053EF00000300318013032
:1018EE00F1007108803AF20080307202031D812CE3
:1018FE00730870020318842C852C8E2C831203130C
:10190E000715DF30F00070088705DE01DE0A0800DB
:10191E00FD00013083120313D8070318D90A0030D3
:10192E00D907C02C03305902E830031958020318A6
:10193E00A12CA22CA92C7D080A128A118F270A121B
:10194E008A15D02CDF01DF0AD801D9010A128A15B7
:10195E0008220A128A15D02CE830580603300319D3
:10196E005906031DBB2CBC2CD02CDF01D801D9018C
:10197E00D02C5F08A000A1012108003A0319C82C41
:10198E00D02C2008003A0319992C013A0319B32CD4
:10199E00D02C0800F501F601700871040319D82C3B
:1019AE00D92C102DF701F70AE72C01300310F00D9A
:1019BE00F10DFF3E031DDD2C0130F4007408F70716
:1019CE00F11FEA2CEB2CDC2C01300310F50DF60D7B
:1019DE00FF3E031DEC2C71087302031DF82C7008DA
:1019EE007202031CFB2CFC2C032D7008F2027108F2
:1019FE00031CF303F302751401300310F10CF00C09
:101A0E00FF3E031D042D0130F702031D0F2D102D77
:101A1E00EB2C7608F1007508F00008000A128A1502
:101A2E00FF210A128A150A128A1514230A128A1520
:101A3E000A128A15CC210A128A150A128A15D12287
:101A4E000A128A150A128A155B220A128A15FF30AB
:101A5E0083160313A1000030A2000A128A15B823C0
:101A6E000A128A1583160313B70065303702031C5A
:101A7E00412D422D492D3C30B700370883120313F8
:101A8E00E600592DFF30A1000030A2000A128A157F
:101A9E00B8230A128A1583160313B7003708831268
:101AAE000313E6000A128A15F0220A128A155E2D19
:101ABE000A128A111228F601F31F662D672D6E2D5C
:101ACE00F209F309F20A0319F30AF601F60AF11FF5
:101ADE00712D722D772DF009F109F00A0319F10A13
:101AEE007008710403197C2D7D2DAC2DF501F50ABE
:101AFE008B2D01300310F00DF10DFF3E031D812DD6
:101B0E000130F4007408F507F11F8E2D8F2D802DF6
:101B1E0071087302031D952D70087202031C982D17
:101B2E00992D9F2D7008F2027108031CF303F30226
:101B3E0001300310F10CF00CFF3E031DA02D0130FF
:101B4E00F502031DAB2DAC2D8F2D76080319B02D8C
:101B5E00B12DB62DF209F309F20A0319F30A73082F
:101B6E00F1007208F0000800F200DF2D3F30192E50
:101B7E000630192E5B30192E4F30192E6630192E65
:101B8E006D30192E7D30192E0730192E7F30192EFB
:101B9E006F30192E7730192E7C30192E5830192EA1
:101BAE005E30192E7930192E7130192E0030192E03
:101BBE007208F000F1017108003A0319E72DDD2DCE
:101BCE007008003A0319BD2D013A0319BF2D033ACF
:101BDE000319C12D013A0319C32D073A0319C52D57
:101BEE00013A0319C72D033A0319C92D013A0319F6
:101BFE00CB2D0F3A0319CD2D013A0319CF2D033AF0
:101C0E000319D12D013A0319D32D073A0319D52DF6
:101C1E00013A0319D72D033A0319D92D013A0319A5
:101C2E00DB2DDD2D0800F601F11F1E2E1F2E262E98
:101C3E00F009F109F00A0319F10AF601F60AF31F89
:101C4E00292E2A2E332EF209F309F20A0319F30A6A
:101C5E000130F4007408F606F701F80170087104FB
:101C6E0003193A2E3B2E722EF501F50A492E01303C
:101C7E000310F00DF10DFF3E031D3F2E0130F40059
:101C8E007408F507F11F4C2E4D2E3E2E0130031019
:101C9E00F70DF80DFF3E031D4E2E71087302031D46
:101CAE005A2E70087202031C5D2E5E2E652E700871
:101CBE00F2027108031CF303F302771401300310D0
:101CCE00F10CF00CFF3E031D662E0130F502031DD4
:101CDE00712E722E4D2E76080319762E772E7C2EAF
:101CEE00F709F809F70A0319F80A7808F1007708D6
:101CFE00F0000800DA2E6C080319862E872E8C2E23
:101D0E006B08031D8B2E8C2EEC2EE401E40AEC01E5
:101D1E00EC0AEB01EB0AEC2E13305B028830031950
:101D2E005A0203189B2E9C2EC92E6C08031DA02E42
:101D3E00A12EB02E4B3066020318A62EA72EB02E63
:101D4E000530F4007408E607DA01DB01EC01EC0A59
:101D5E00EC2E6B08031DB42EB52EC22E2430660257
:101D6E00031CBA2EBB2EC22E0530E602DA01DB01B1
:101D7E00EB01EB0AEC2E0130DA070318DB0A003018
:101D8E00DB07EC2EE401DA01DB01FF30F10000305D
:101D9E00F2006608F4007408F3000A128A15B422E1
:101DAE000A128A15EC2E831203136408F400F5014F
:101DBE007508003A0319E42EEC2E7408003A031944
:101DCE00822E013A0319932EEC2E08000310831273
:101DDE000313420D430DC4004408CA004A08031DF4
:101DEE00F92EFA2E032F0030C3000030C20000304F
:101DFE00C1000030C000682F4008C4004108C50073
:101E0E004208C6004308C7001F300310C70CC60C9B
:101E1E00C50CC40CFF3E031D0C2F4408C800480817
:101E2E00C900C217FF30C005FF30C105FF30C20523
:101E3E000030C3059630CA02CA1F262F272F412F06
:101E4E004A08803A973E03182D2F2E2F2F2FFA2E49
:101E5E0001300310C30CC20CC10CC00CFF3E031D9D
:101E6E00302F0130C4004408CA07031D3F2F402FF6
:101E7E002F2F582F20304A02031C462F472F532F47
:101E8E00FA2E0130C4000310C00DC10DC20DC30DDA
:101E9E00C40B4A2F0130CA024A08031D572F582F70
:101EAE00482F490803195C2F5D2F682FC009C109FF
:101EBE00C209C309C00A0319C10A0319C20A0319C8
:101ECE00C30A0800833091008C1C6E2F6F2FBF2F1A
:101EDE00FD30D00050088C05AF2F0A128A117A25DA
:101EEE000A128A1583120313D0005008E500650804
:101EFE000A128A118F270A128A1583120313650894
:101F0E000A128A1551240A128A150A128A15E92311
:101F1E000A128A150A128A157F220A128A150A12C5
:101F2E008A1581260A128A15BF2F0A128A157F2258
:101F3E000A128A150A128A1581260A128A15831226
:101F4E00031366080A128A158F240A128A15BF2FE8
:101F5E006408D000D1015108003A0319B72FBF2FE2
:101F6E005008003A0319742F013A03199C2FBF2F02
:101F7E008B1CC22FC32FF32FFD3083120313D000FF
:101F8E0050088B05E32FE301E30A0A128A15C521D7
:101F9E000A128A150A128A1508220A128A150A12BC
:101FAE008A153C220A128A15F32FE3010A128A15AA
:101FBE00BF210A128A15F32F6308D000D1015108F0
:101FCE00003A0319EB2FF32F5008003A0319CA2FCA
:101FDE00013A0319DC2FF32F831203135508FF0068
:101FEE0054088A0053088400520E8300FE0E7E0EA3
:021FFE000900D8
:02400E00BB3FB6
:00000001FF
