:020000040000FA
:060000000A128A11122809
:10000800FE00030E83120313D2000408D3000A086B
:10001800D4007F08D5000A128A11EC2E0A128A1120
:1000280015280A128A15E1210A128A11EA000A1211
:100038008A15E2210A128A11EB008313B730840073
:10004800CB300A128A15F7210A128A115630840019
:100058006A300A128A15F7210A128A1183010A12D4
:100068008A15FE2C8312031329088039AE002E0846
:10007800B3002908AE002E07AF002F08B900A81F4B
:100088004628472848283914390803194C284D2888
:100098005C28390A031D512852285A280030A90023
:1000A8000030A8000030A7000030A600A817642878
:1000B8000030A9000030A8000030A7000030A600DA
:1000C8002D088039AE002E08B3062D08AE002E0785
:1000D800AF002F08B800AC1F722873287428381492
:1000E80038080319782879288828380A031D7D28B4
:1000F8007E2886280030AD000030AC000030AB0010
:100108000030AA00AC1790280030AD000030AC00D9
:100118000030AB000030AA0038080319942895284D
:100128009A283908031D99289A28A3280030A9007D
:100138000030A8000030A7000030A600962B260843
:10014800AE002E08F0002C080A128A1560230A1245
:100158008A11710883120313BF007008BE003E089D
:10016800AE00AF01B001B1013108B7003008B600E8
:100178002F08B5002E08B4003F08AE00AF01B0014B
:10018800B1013108BD003008BC002F08BB002E08A3
:10019800BA002708AE002E08F0002B080A128A15AC
:1001A80060230A128A11710883120313BF007008B2
:1001B800BE003E08AE00AF01B001B1012E08B40781
:1001C8002F0803110318013E0319EB28B50730085F
:1001D80003110318013E0319F228B6073108031169
:1001E8000318013E0319F928B7073F08AE00AF010D
:1001F800B001B1012E08BA072F0803110318013EF8
:1002080003190729BB07300803110318013E031916
:100218000E29BC07310803110318013E03191529DB
:10022800BD072808AE002E08F0002A080A128A1511
:1002380060230A128A11710883120313BF00700821
:10024800BE003E08AE00AF01B001B1012E08B407F0
:100258002F0803110318013E03193329B507300885
:1002680003110318013E03193A29B607310803118F
:100278000318013E03194129B7073F08AE00AF0133
:10028800B001B1012E08BA072F0803110318013E67
:1002980003194F29BB07300803110318013E03193E
:1002A8005629BC07310803110318013E03195D29BB
:1002B800BD070830AE000310B40DB50DB60DB70D6F
:1002C800AE0B5F292708AE002E08F0002A080A1294
:1002D8008A1560230A128A11710883120313BF005A
:1002E8007008BE003E08AE003F08AF00B001B10183
:1002F8002E08B4072F0803110318013E0319852996
:10030800B507300803110318013E03198C29B607F5
:10031800310803110318013E03199329B70726086A
:10032800AE002E08F0002B080A128A1560230A1264
:100338008A11710883120313BF007008BE003E08BB
:10034800AE003F08AF00B001B1012E08B4072F0876
:1003580003110318013E0319B229B5073008031128
:100368000318013E0319B929B60731080311031808
:10037800013E0319C029B7070830AE000310B40DB9
:10038800B50DB60DB70DAE0BC2292608AE002E0866
:10039800F0002A080A128A1560230A128A117108C5
:1003A80083120313BF007008BE003E08AE003F086A
:1003B800AF00B001B1012E08B4072F0803110318CC
:1003C800013E0319E829B507300803110318013E57
:1003D8000319EF29B607310803110318013E031961
:1003E800F629B7072708AE002E08F0002C080A12D5
:1003F8008A1560230A128A11710883120313BF0039
:100408007008BE003E08AE003F08AF00B001B10161
:100418002E08BA072F0803110318013E0319152ADD
:10042800BB07300803110318013E03191C2ABC0737
:10043800310803110318013E0319232ABD072808B0
:10044800AE002E08F0002B080A128A1560230A1243
:100458008A11710883120313BF007008BE003E089A
:10046800AE003F08AF00B001B1012E08BA072F084F
:1004780003110318013E0319422ABB073008031170
:100488000318013E0319492ABC0731080311031850
:10049800013E0319502ABD072808AE002E08F000B7
:1004A8002C080A128A1560230A128A11710883120D
:1004B8000313BF007008BE003E08AE003F08AF003F
:1004C800B001B10108300310AE0DAF0DB00DB10D84
:1004D800FF3E031D672A2E08BA072F0803110318C9
:1004E800013E0319782ABB07300803110318013E9F
:1004F80003197F2ABC07310803110318013E0319A9
:10050800862ABD073408AE003508AF003608B000AB
:100518003708B10018300310B10CB00CAF0CAE0C9A
:10052800FF3E031D8F2A2E08BA072F080311031850
:10053800013E0319A02ABB07300803110318013E26
:100548000319A72ABC07310803110318013E031930
:10055800AE2ABD070830AE000310B40DB50DB60DB8
:10056800B70DAE0BB02A39083807AE00AF01AF0D92
:100578002E08823EBE002F080318013EFF3EBF0032
:10058800E22A0130AE000310BA0DBB0DBC0DBD0D43
:10059800AE0BC72AB71FD12AD22AD32A3A14013060
:1005A800AE000310B40DB50DB60DB70DAE0BD52AC0
:1005B800FF30BE070318BF0AFF30BF07BC1FE52A7C
:1005C800E62AC52AB801B71FEA2AEB2A072BFF300B
:1005D8003405AE00FF303505AF00FF303605B000FA
:1005E8007F303705B100310830042F042E04031979
:1005F800FE2AFF2A022BB801B80A072B3A1C052B42
:10060800062B072BFF2A380803190B2B0C2B3D2B25
:100618000130BA07003003180130BB070030031857
:100628000130BC07003003180130BD073D1C1D2BED
:100638001E2B3D2B3A08AE003B08AF003C08B0002B
:100648003D08B1000130B200310DB10CB00CAF0C57
:10065800AE0CB20B282B3108BD003008BC002F08A7
:10066800BB002E08BA000130BE070318BF0A0030CD
:10067800BF073F08803AFF0080307F02031D462BEA
:10068800FF303E02031C492B4A2B552B7F30831227
:100698000313BD008030BC000030BB000030BA003E
:1006A8008A2B831203133F08803AFF0080307F02B1
:1006B800031D602B01303E020318632B642B702B43
:1006C800003083120313BD000030BC000030BB00B3
:1006D8000030BA00B3018A2B831203133E08AE0020
:1006E8002E08B900FF30BA05FF30BB057F30BC05C6
:1006F8000030BD05391C812B822B832BBC17390890
:10070800AE0003102E0CAF002F08BD003308AE005A
:100718002E08BD043D08A9003C08A8003B08A70016
:100728003A08A6000800831203132D088039AE008A
:100738002E08B7002D08AE002E07AF002F08BE0008
:10074800AC1FA72BA82BA92B3E143E080319AD2BD1
:10075800AE2BBE2B3E0A031DB22BB32BBB2B003096
:10076800AD000030AC000030AB000030AA00AC1780
:10077800AD01C62B0030AD000030AC000030AB003E
:100788000030AA0029088039AE002E08B7062908CB
:10079800AE002E07AF002F08BF00A81FD42BD52B03
:1007A800D62B3F143F080319DA2BDB2BEB2B3F0A20
:1007B800031DDF2BE02BE82B0030A9000030A80038
:1007C8000030A7000030A600A817A901F32B0030BD
:1007D800A9000030A8000030A7000030A6002908B2
:1007E800280427042604031DFA2BFB2B142C0030A5
:1007F800AD000030AC000030AB000030AA00803003
:10080800AC047F30AD043708AE002E08AD042D08C7
:10081800A9002C08A8002B08A7002A08A600732DF9
:100828003E08031D182C192C222C0030A90000307A
:10083800A8000030A7000030A600732D3E08AE00C7
:10084800AF012F08B1003F082E02B000031CB1030E
:1008580030087F3EB80031080318013E003EB90059
:100868002D08B6002C08B5002B08B4002A08B300E0
:100878000030AD000030AC000030AB000030AA0002
:100888000030BD000030BC000030BB000030BA00B2
:10089800BF01982C3F080319522C532C732C01309C
:1008A800AE000310B30DB40DB50DB60DAE0B552C3F
:1008B8000130AE000310AA0DAB0DAC0DAD0DAE0BA3
:1008C8005E2CBD1F682C692C6A2C2A140130AE00DE
:1008D8000310BA0DBB0DBC0DBD0DAE0B6C2C290859
:1008E8003602031D812C28083502031D812C270898
:1008F8003402031D812C26083302031C842C852C0A
:10090800942C3D172608B3022708031C270FB402AE
:100918002808031C280FB5022908031C290FB60252
:100928000130AE002E08BF071A303F02031C9D2C71
:100938009E2C4E2C36083504340433040319A52C98
:10094800A62CC52C3A14C52C0130AE000310AA0DF4
:10095800AB0DAC0DAD0DAE0BAA2CBD1FB42CB52C38
:10096800B62C2A140130AE000310BA0DBB0DBC0D15
:10097800BD0DAE0BB82CFF30B8070318B90AFF300D
:10098800B907AC1FC82CC92CA82CBF01BD1FCD2C82
:10099800CE2CEA2CFF303A05AE00FF303B05AF0005
:1009A800FF303C05B0007F303D05B1003108300410
:1009B8002F042E040319E12CE22CE52CBF01BF0AF9
:1009C800EA2C2A1CE82CE92CEA2CE22C3F08031913
:1009D800EE2CEF2C202D0130AA070030031801302F
:1009E800AB07003003180130AC07003003180130A2
:1009F800AD072D1C002D012D202D2A08AE002B0837
:100A0800AF002C08B0002D08B1000130B200310D44
:100A1800B10CB00CAF0CAE0CB20B0B2D3108AD0005
:100A28003008AC002F08AB002E08AA000130B80728
:100A38000318B90A0030B9073908803AFF00803036
:100A48007F02031D292DFF303802031C2C2D2D2D6C
:100A58003B2DFF3083120313B8000030B90000307B
:100A6800AD000030AC000030AB000030AA008312AB
:100A780003133908803AFF0080307F02031D462D9A
:100A8800013038020318492D4A2D572D83120313BC
:100A9800B801B9010030AD000030AC000030AB0047
:100AA8000030AA00B701831203133808AE002E08DD
:100AB800BE003E1C602D612D632DAC17672D7F3065
:100AC800AE002E08AC053E08AE0003102E0CAF0099
:100AD8002F08AD003708AE002E08AD040B2C080017
:100AE800013083120313CB004B08E9076430690611
:100AF800031D7F2D802D2E2E02300A128A15872382
:100B08000A128A11700883120313CB007108CC00F3
:100B1800CD01CE014E08F8004D08F7004C08F6004C
:100B28004B08F50000300A128A1130260A128A1181
:100B3800780883120313AD007708AC007608AB0081
:100B48007508AA004030A9009C30A8007A30A70098
:100B5800E130A6000A128A1136200A128A1183127D
:100B680003132908C3002808C2002708C100260863
:100B7800C0000A128A1183270A128A1183120313EA
:100B88005D08CF004F07B73E8400400883138000FC
:100B9800840A410880005D08CB004B07B73E8400FB
:100BA8000008CC00840A0008CD004C08F5004D0868
:100BB800F600F701F80100300A128A1130260A12ED
:100BC8008A11780883120313AD007708AC00760801
:100BD800AB007508AA004130A9002030A8000030F9
:100BE800A7000030A6000A128A1197230A128A1158
:100BF800831203132908C3002808C2002708C1006C
:100C08002608C0000A128A1183270A128A11831241
:100C180003135D08CE004E07B73E840040088313D7
:100C28008000840A410880000130CB004B08DD07B2
:100C3800E9010A305D06031D222E232E242EDD0134
:100C48000A128A15AF230A128A1183120313CB00E2
:100C58004B08DC005C08080083120313A00020087E
:100C68000319372E382E4C2EF81F3B2E3C2E4C2EB7
:100C78007509A2007609A3007709A4007809A500E0
:100C8800A20A0319A30A0319A40A0319A50A542ED0
:100C98007808A5007708A4007608A3007508A200C4
:100CA8007808770476047504031D5B2E5C2E652E88
:100CB8000030F8000030F7000030F6000030F50092
:100CC800EB2E9630F9007908A100772E0130F90053
:100CD8007908A10701300310A50CA40CA30CA20CE1
:100CE800FF3E031D6F2EFE302505031D7C2E7D2E35
:100CF8006A2E992E0130F9007908A1070130A20760
:100D0800003003180130A307003003180130A4078E
:100D1800003003180130A50701300310A50CA40CFE
:100D2800A30CA20CFF3E031D912EFF302505031DC9
:100D38009E2E9F2E7E2EAB2E0130A1020130F9008F
:100D48000310A20DA30DA40DA50DF90BA42EA41B31
:100D5800AE2EAF2EB52E023021020318B42EB52EBA
:100D6800A02E2118B82EB92EC12EFF30A205FF30B3
:100D7800A3057F30A405FF30A5050310A10C2108A9
:100D8800F900FA01FB01FC0118300310F90DFA0D06
:100D9800FB0DFC0DFF3E031DC92E7908A2047A083D
:100DA800A3047B08A4047C08A50420080319DD2EED
:100DB800DE2EE32EF81FE12EE22EE32EA5172508DE
:100DC800F8002408F7002308F6002208F5000800B8
:100DD800833091008C1CF12EF22E422FFD30D00072
:100DE80050088C05322F0A128A1174250A128A11AA
:100DF80083120313D0005008E50065080A128A150B
:100E080092270A128A118312031365080A128A1597
:100E18004B250A128A110A128A1510240A128A11FD
:100E28000A128A15A6220A128A110A128A15262778
:100E38000A128A11422F0A128A15A6220A128A1148
:100E48000A128A1526270A128A11831203136608C2
:100E58000A128A1578240A128A11422F6408D000CF
:100E6800D1015108003A03193A2F422F5008003A8D
:100E78000319F72E013A03191F2F422F8B1C452FF8
:100E8800462F762FFD3083120313D00050088B05B0
:100E9800662FE301E30A0A128A15E9210A128A1168
:100EA8000A128A152C220A128A110A128A1581221C
:100EB8000A128A11762FE3010A128A15E3210A120F
:100EC8008A11762F6308D000D1015108003A03191E
:100ED8006E2F762F5008003A03194D2F013A031947
:100EE8005F2F762F831203135508FF0054088A00DA
:100EF80053088400520E8300FE0E7E0E0900031074
:100F080083120313420D430DC4004408CA004A0863
:100F1800031D8F2F902F992F0030C3000030C2007F
:100F28000030C1000030C000FE2F4008C400410856
:100F3800C5004208C6004308C7001F300310C70C8D
:100F4800C60CC50CC40CFF3E031DA22F4408C800E4
:100F58004808C900C217FF30C005FF30C105FF307F
:100F6800C2050030C3059630CA02CA1FBC2FBD2F68
:100F7800D72F4A08803A973E0318C32FC42FC52F8E
:100F8800902F01300310C30CC20CC10CC00CFF3EE3
:100F9800031DC62F0130C4004408CA07031DD52FFE
:100FA800D62FC52FEE2F20304A02031CDC2FDD2F51
:100FB800E92F902F0130C4000310C00DC10DC20DE0
:100FC800C30DC40BE02F0130CA024A08031DED2FE0
:100FD800EE2FDE2F49080319F22FF32FFE2FC00939
:100FE800C109C209C309C00A0319C10A0319C20AFF
:060FF8000319C30A080002
:1013C2000134013483120313121583309100080093
:1013D200FB30F00070088312031392050800831695
:1013E20003130615861406140B1608006400800108
:1013F200840A0406031900340406F8290A128A151D
:1014020039220A128A1583160313111408000A12CC
:101412008A1539220A128A15831603131115080038
:101422000A128A1546220A128A1583160313111408
:1014320008000A128A1546220A128A158316031315
:10144200111508000A128A15BF220A128A1583167C
:10145200031305150800831203138801EF30F0000F
:1014620070088505DF30F00070088505E801080086
:101472008316031314193E2A3F2A392A11081F39E9
:10148200031D442A452A392A080083160313141916
:101492004B2A4C2A462A11081F39031D512A522A67
:1014A200462A0800831203138C1183160313911525
:1014B20083128C1D5D2A5E2A592A8C11130808009A
:1014C200F0000A128A1539220A128A15700883124C
:1014D200031393000A128A1539220A128A15080088
:1014E200003083160313B1000130B0008630AF0024
:1014F200A030AE000A128A1544240A128A15080086
:10150200DF30F0007008831203138705FB30F00010
:1015120070088705EF30F00070088605D601D70104
:10152200080083160313A0000A128A1546220A1223
:101532008A158316031320088312031393000A12D9
:101542008A1546220A128A1508000130F000700836
:1015520083120313E707C8306706031DB12AB22AB4
:10156200BE2A0619B52AB62AB82AEB01BD2A861860
:10157200BB2ABC2ABD2AEA01E70108008312031331
:101582009F171F17831603131F179F17FE30A00004
:1015920020089F05FD30A00020089F05FB30A00019
:1015A20020089F05F730A00020089F05831203132F
:1015B2001F1408000A128A15FF210A128A15A23086
:1015C2000A128A1561220A128A1571080A128A15EC
:1015D20061220A128A1573080A128A1561220A12F6
:1015E2008A150A128A1508220A128A150800831619
:1015F20003138801831203138801EF308316031348
:10160200A00020088505EF30A000200883120313F4
:101612008505DF3083160313A00020088505DF301F
:10162200A00020088312031385050800FB308316EF
:101632000313A00020088312031392059214FE30B4
:1016420083160313A000200883120313920583302C
:1016520091008B170B17FD3083160313A00020088F
:10166200831203138C05831603138C148312031342
:1016720012150800DF3083160313A0002008870527
:10168200DF30A0002008831203138705FB30831686
:101692000313A00020088705FB30A0002008831256
:1016A20003138705EF3083160313A0002008860575
:1016B200EF30A00020088312031386050800F8000B
:1016C200F401F5017008F200F3017208F6007308E4
:1016D200F700781C6D2B6E2B742B7608F407031819
:1016E200F50A7708F50701300310F60DF70DFF3EF6
:1016F200031D752B0310F80C7808031D812B822B18
:101702006A2B7508F1007408F0000800F400F73045
:10171200F2007208831203139F05EF30F200720881
:101722009F05DF30F20072089F057408F200023054
:101732000310F20DFF3E031D992B0310720DF300EF
:1017420073089F041F151F19A72BA82BA42B1E0873
:10175200F100831603131E08F0000800FD01FB01CF
:10176200FC01FD017D08F8007807B73E8400831371
:101772000008F900840A0008FA007B087907FB00D8
:101782007C0803187C0A7A07FC000130F80078080C
:10179200FD070A307D02031CCF2BD02BB32B0A305E
:1017A200F0000030F1007C08F3007B08F2000A121E
:1017B2008A15BA240A128A15700808000A128A15B4
:1017C20011220A128A15A2300A128A1592220A12CC
:1017D2008A158316031321080A128A1592220A1205
:1017E2008A150A128A1511220A128A15A3300A12C0
:1017F2008A1592220A128A150A128A1553220A128D
:101802008A1583160313A3002308A4000A128A155B
:101812001A220A128A1583160313240808002E2C92
:101822000130D6070318D70A0030D707E83056062A
:10183200033003195706031D1F2C202C432C103094
:10184200F00070088606D601D701432C0616242C18
:10185200EF30F00070088605432C831203135E08F4
:10186200F000F1017108003A0319382C432C70087A
:10187200003A0319112C013A0319272C033A0319D0
:10188200292C432C080083120313941694158316F3
:1018920003132E08B2002F08B3003008B400310839
:1018A200B50002300310B20DB30DB40DB50DFF3EFD
:1018B200031D532C3508A3003408A2003308A100ED
:1018C2003208A0000030A7007A30A6001230A5002E
:1018D2000030A4000A128A15BE260A128A1583163F
:1018E20003132008FF3E9300871507160800FD002A
:1018F200013083120313D8070318D90A0030D9071D
:10190200A92C03305902E8300319580203188A2C13
:101912008B2C922C7D080A128A1592270A128A159C
:10192200B92CDF01DF0AD801D9010A128A152C224B
:101932000A128A15B92CE8305806033003195906E1
:10194200031DA42CA52CB92CDF01D801D901B92C77
:101952005F08A000A1012108003A0319B12CB92C9B
:101962002008003A0319822C013A03199C2CB92C45
:101972000800F501F601700871040319C12CC22C8C
:10198200F92CF701F70AD02C01300310F00DF10DFC
:10199200FF3E031DC62C0130F4007408F707F11F47
:1019A200D32CD42CC52C01300310F50DF60DFF3EBF
:1019B200031DD52C71087302031DE12C70087202FD
:1019C200031CE42CE52CEC2C7008F2027108031CB9
:1019D200F303F302751401300310F10CF00CFF3E17
:1019E200031DED2C0130F702031DF82CF92CD42C29
:1019F2007608F1007508F00008000A128A15232201
:101A02000A128A150A128A153B230A128A150A1229
:101A12008A15F0210A128A150A128A15F8220A1268
:101A22008A150A128A1571220A128A15FF30831644
:101A32000313A1000030A2000A128A15DF230A1242
:101A42008A1583160313B60065303602031C2A2D4D
:101A52002B2D322D3C30B600360883120313E600DC
:101A6200422DFF30A1000030A2000A128A15DF23A6
:101A72000A128A1583160313B6003608831203135B
:101A8200E6000A128A1517230A128A15472D0A122E
:101A92008A111228F300831203136608FB3EF0003A
:101AA200FF3003180030F1007108803A803C031DBA
:101AB2005C2D7008730203185F2D602D692D83124F
:101AC20003138716FB30F00070088705DE019E2D98
:101AD200831203136608053EF0000030031801303C
:101AE200F1007108803AF20080307202031D7B2DF2
:101AF2007308700203187E2D7F2D892D8312031324
:101B02000715DF30F00070088705DE01DE0A9E2D22
:101B12007308831203136606031D902D912D9E2DCB
:101B2200FB30F00070088705DF30F0007008870591
:101B32000230F0007008DE009E2D0800F601F31F4F
:101B4200A32DA42DAB2DF209F309F20A0319F30A0E
:101B5200F601F60AF11FAE2DAF2DB42DF009F109F1
:101B6200F00A0319F10A700871040319B92DBA2D8C
:101B7200E92DF501F50AC82D01300310F00DF10D24
:101B8200FF3E031DBE2D0130F4007408F507F11F5E
:101B9200CB2DCC2DBD2D71087302031DD22D7008E3
:101BA2007202031CD52DD62DDC2D7008F2027108AD
:101BB200031CF303F30201300310F10CF00CFF3E9F
:101BC200031DDD2D0130F502031DE82DE92DCC2D7D
:101BD20076080319ED2DEE2DF32DF209F309F20A21
:101BE2000319F30A7308F1007208F0000800F2000A
:101BF2001C2E3F30562E0630562E5B30562E4F305E
:101C0200562E6630562E6D30562E7D30562E0730AB
:101C1200562E7F30562E6F30562E7730562E7C3011
:101C2200562E5830562E5E30562E7930562E713042
:101C3200562E0030562E7208F000F1017108003A5B
:101C42000319242E1A2E7008003A0319FA2D013AAC
:101C52000319FC2D033A0319FE2D013A0319002E34
:101C6200073A0319022E013A0319042E033A031903
:101C7200062E013A0319082E0F3A03190A2E013AC9
:101C820003190C2E033A03190E2E013A0319102ED2
:101C9200073A0319122E013A0319142E033A0319B3
:101CA200162E013A0319182E1A2E0800F601F11FFA
:101CB2005B2E5C2E632EF009F109F00A0319F10A7A
:101CC200F601F60AF31F662E672E702EF209F3094B
:101CD200F20A0319F30A0130F4007408F606F70158
:101CE200F801700871040319772E782EAF2EF501D2
:101CF200F50A862E01300310F00DF10DFF3E031D93
:101D02007C2E0130F4007408F507F11F892E8A2E0B
:101D12007B2E01300310F70DF80DFF3E031D8B2EB5
:101D220071087302031D972E70087202031C9A2E0B
:101D32009B2EA22E7008F2027108031CF303F30219
:101D4200771401300310F10CF00CFF3E031DA32E9B
:101D52000130F502031DAE2EAF2E8A2E760803192E
:101D6200B32EB42EB92EF709F809F70A0319F80AA7
:101D72007808F1007708F00008000030831603139A
:101D8200AC000030AB000030AA000030A9002308EC
:101D92002204210420040319CF2ED02E1D2FAD01C1
:101DA200AD0AE02E0130A8000310A00DA10DA20D76
:101DB200A30DA80BD52E0130A8002808AD07A31F3C
:101DC200E32EE42ED32E0130A8000310A90DAA0D94
:101DD200AB0DAC0DA80BE62E23082702031DFB2E2C
:101DE20022082602031DFB2E21082502031DFB2EBD
:101DF20020082402031CFE2EFF2E0E2F2008A40210
:101E02002108031C210FA5022208031C220FA6028F
:101E12002308031C230FA702291401300310A30C6B
:101E2200A20CA10CA00CFF3E031D0F2F0130AD022E
:101E3200031D1C2F1D2FE42E2C08A3002B08A2002B
:101E42002A08A1002908A00008007F2F6B080319A7
:101E52002B2F2C2F312F6A08031D302F312F912F5A
:101E6200E401E40AEB01EB0AEA01EA0A912F1330DA
:101E72005B02883003195A020318402F412F6E2F3C
:101E82006B08031D452F462F552F4B306602031852
:101E92004B2F4C2F552F0530F4007408E607DA015A
:101EA200DB01EB01EB0A912F6A08031D592F5A2F10
:101EB200672F24306602031C5F2F602F672F0530C7
:101EC200E602DA01DB01EA01EA0A912F0130DA07C0
:101ED2000318DB0A0030DB07912FE401DA01DB0192
:101EE200FF30F1000030F2006608F4007408F300DD
:101EF2000A128A15DB220A128A15912F8312031302
:101F02006408F400F5017508003A0319892F912F2E
:101F12007408003A0319272F013A0319382F912F19
:101F22000800FC000130F900790883120313E80766
:101F320032306806031D9E2F9F2FFF2FEF2F0A308E
:101F4200F0000030F1007C08F900FA017908F20093
:101F52007A08F3000A128A1557260A128A1570089F
:101F6200FB007B0883120313E2000516DF30F90041
:101F72007908850562080A128A15F8250A128A1557
:101F8200831203138800E801E001E00AFF2F0A3000
:101F9200F0000030F1007C08F900FA017908F20043
:101FA2007A08F3000A128A159F250A128A15700808
:101FB200FB007B0883120313E1008516EF30F90062
:101FC2007908850561080A128A15F8250A128A1508
:101FD200831203138800E801E001FF2F6008F90073
:101FE200FA017A08003A0319F72FFF2F7908003A0D
:0E1FF2000319A02F013A0319C82FFF2F080072
:02400E00BB3FB6
:00000001FF
