:020000040000FA
:060000000A128A11122809
:10000800FE00030E83120313D2000408D3000A086B
:10001800D4007F08D5000A128A11F22E0A128A111A
:1000280015280A128A158E210A128A11E9000A1265
:100038008A158F210A128A11EA000A128A1590215C
:100048000A128A11EB008313B7308400CB300A12EE
:100058008A15A5210A128A115630840069300A12BD
:100068008A15A5210A128A1183010A128A15E82D18
:100078008312031329088039AE002E08B30029081B
:10008800AE002E07AF002F08B900A81F4C284D2836
:100098004E28391439080319522853286228390A76
:1000A800031D5728582860280030A9000030A800F0
:1000B8000030A7000030A600A8176A280030A90061
:1000C8000030A8000030A7000030A6002D088039B5
:1000D800AE002E08B3062D08AE002E07AF002F087D
:1000E800B800AC1F782879287A28381438080319FA
:1000F8007E287F288E28380A031D832884288C2888
:100108000030AD000030AC000030AB000030AA0079
:10011800AC1796280030AD000030AC000030AB00C2
:100128000030AA00380803199A289B28A028390803
:10013800031D9F28A028A9280030A9000030A80086
:100148000030A7000030A6009C2B2608AE002E0821
:10015800F0002C080A128A153E230A128A11710827
:1001680083120313BF007008BE003E08AE00AF0143
:10017800B001B1013108B7003008B6002F08B5004A
:100188002E08B4003F08AE00AF01B001B10131083C
:10019800BD003008BC002F08BB002E08BA00270895
:1001A800AE002E08F0002B080A128A153E230A1208
:1001B8008A11710883120313BF007008BE003E083D
:1001C800AE00AF01B001B1012E08B4072F0803112A
:1001D8000318013E0319F128B50730080311031865
:1001E800013E0319F828B607310803110318013E28
:1001F8000319FF28B7073F08AE00AF01B001B101EE
:100208002E08BA072F0803110318013E03190D29F8
:10021800BB07300803110318013E03191429BC0752
:10022800310803110318013E03191B29BD072808CB
:10023800AE002E08F0002A080A128A153E230A1278
:100248008A11710883120313BF007008BE003E08AC
:10025800AE00AF01B001B1012E08B4072F08031199
:100268000318013E03193929B5073008031103188B
:10027800013E03194029B607310803110318013E4E
:1002880003194729B7073F08AE00AF01B001B10114
:100298002E08BA072F0803110318013E0319552920
:1002A800BB07300803110318013E03195C29BC077A
:1002B800310803110318013E03196329BD070830EB
:1002C800AE000310B40DB50DB60DB70DAE0B652914
:1002D8002708AE002E08F0002A080A128A153E23C5
:1002E8000A128A11710883120313BF007008BE0036
:1002F8003E08AE003F08AF00B001B1012E08B407B8
:100308002F0803110318013E03198B29B50730087C
:1003180003110318013E03199229B6073108031186
:100328000318013E03199929B7072608AE002E08BD
:10033800F0002B080A128A153E230A128A11710846
:1003480083120313BF007008BE003E08AE003F08CA
:10035800AF00B001B1012E08B4072F08031103182C
:10036800013E0319B829B507300803110318013EE7
:100378000319BF29B607310803110318013E0319F1
:10038800C629B7070830AE000310B40DB50DB60D79
:10039800B70DAE0BC8292608AE002E08F0002A08B3
:1003A8000A128A153E230A128A117108831203134E
:1003B800BF007008BE003E08AE003F08AF00B001A5
:1003C800B1012E08B4072F0803110318013E0319C1
:1003D800EE29B507300803110318013E0319F52962
:1003E800B607310803110318013E0319FC29B707A2
:1003F8002708AE002E08F0002C080A128A153E23A2
:100408000A128A11710883120313BF007008BE0014
:100418003E08AE003F08AF00B001B1012E08BA0790
:100428002F0803110318013E03191B2ABB073008C4
:1004380003110318013E0319222ABC0731080311CE
:100448000318013E0319292ABD072808AE002E0803
:10045800F0002B080A128A153E230A128A11710825
:1004680083120313BF007008BE003E08AE003F08A9
:10047800AF00B001B1012E08BA072F080311031805
:10048800013E0319482ABB07300803110318013E2F
:1004980003194F2ABC07310803110318013E031939
:1004A800562ABD072808AE002E08F0002C080A12AC
:1004B8008A153E230A128A11710883120313BF009A
:1004C8007008BE003E08AE003F08AF00B001B101A1
:1004D80008300310AE0DAF0DB00DB10DFF3E031D7A
:1004E8006D2A2E08BA072F0803110318013E0319B5
:1004F8007E2ABB07300803110318013E0319852A19
:10050800BC07310803110318013E03198C2ABD07E3
:100518003408AE003508AF003608B0003708B1001F
:1005280018300310B10CB00CAF0CAE0CFF3E031D1D
:10053800952A2E08BA072F0803110318013E03193C
:10054800A62ABB07300803110318013E0319AD2A78
:10055800BC07310803110318013E0319B42ABD076B
:100568000830AE000310B40DB50DB60DB70DAE0BC7
:10057800B62A39083807AE00AF01AF0D2E08823E03
:10058800BE002F080318013EFF3EBF00E82A0130D5
:10059800AE000310BA0DBB0DBC0DBD0DAE0BCD2AC0
:1005A800B71FD72AD82AD92A3A140130AE00031027
:1005B800B40DB50DB60DB70DAE0BDB2AFF30BE0777
:1005C8000318BF0AFF30BF07BC1FEB2AEC2ACB2A4F
:1005D800B801B71FF02AF12A0D2BFF303405AE0001
:1005E800FF303505AF00FF303605B0007F303705E6
:1005F800B100310830042F042E040319042B052BF5
:10060800082BB801B80A0D2B3A1C0B2B0C2B0D2B01
:10061800052B38080319112B122B432B0130BA076D
:10062800003003180130BB07003003180130BC0745
:10063800003003180130BD073D1C232B242B432B0E
:100648003A08AE003B08AF003C08B0003D08B100D6
:100658000130B200310DB10CB00CAF0CAE0CB20BC6
:100668002E2B3108BD003008BC002F08BB002E0817
:10067800BA000130BE070318BF0A0030BF073F08A1
:10068800803AFF0080307F02031D4C2BFF303E0272
:10069800031C4F2B502B5B2B7F3083120313BD00A1
:1006A8008030BC000030BB000030BA00902B8312B1
:1006B80003133F08803AFF0080307F02031D662B3A
:1006C80001303E020318692B6A2B762B0030831207
:1006D8000313BD000030BC000030BB000030BA007E
:1006E800B301902B831203133E08AE002E08B90005
:1006F800FF30BA05FF30BB057F30BC050030BD05B3
:10070800391C872B882B892BBC173908AE0003109E
:100718002E0CAF002F08BD003308AE002E08BD0414
:100728003D08A9003C08A8003B08A7003A08A60015
:100738000800831203132D088039AE002E08B70075
:100748002D08AE002E07AF002F08BE00AC1FAD2B42
:10075800AE2BAF2B3E143E080319B32BB42BC42B7E
:100768003E0A031DB82BB92BC12B0030AD00003059
:10077800AC000030AB000030AA00AC17AD01CC2BA8
:100788000030AD000030AC000030AB000030AA00F3
:1007980029088039AE002E08B7062908AE002E07B2
:1007A800AF002F08BF00A81FDA2BDB2BDC2B3F1470
:1007B8003F080319E02BE12BF12B3F0A031DE52B22
:1007C800E62BEE2B0030A9000030A8000030A7006F
:1007D8000030A600A817A901F92B0030A9000030A5
:1007E800A8000030A7000030A60029082804270424
:1007F8002604031D002C012C1A2C0030AD000030FB
:10080800AC000030AB000030AA008030AC047F3070
:10081800AD043708AE002E08AD042D08A9002C0839
:10082800A8002B08A7002A08A600792D3E08031D5A
:100838001E2C1F2C282C0030A9000030A8000030E6
:10084800A7000030A600792D3E08AE00AF012F08A2
:10085800B1003F082E02B000031CB10330087F3EF0
:10086800B80031080318013E003EB9002D08B60053
:100878002C08B5002B08B4002A08B3000030AD00DE
:100888000030AC000030AB000030AA000030BD00E2
:100898000030BC000030BB000030BA00BF019E2C05
:1008A8003F080319582C592C792C0130AE0003103D
:1008B800B30DB40DB50DB60DAE0B5B2C0130AE000B
:1008C8000310AA0DAB0DAC0DAD0DAE0B642CBD1F06
:1008D8006E2C6F2C702C2A140130AE000310BA0D48
:1008E800BB0DBC0DBD0DAE0B722C29083602031DC5
:1008F800872C28083502031D872C27083402031D7E
:10090800872C26083302031C8A2C8B2C9A2C3D1723
:100918002608B3022708031C270FB4022808031C63
:10092800280FB5022908031C290FB6020130AE00B2
:100938002E08BF071A303F02031CA32CA42C542CEA
:1009480036083504340433040319AB2CAC2CCB2CF7
:100958003A14CB2C0130AE000310AA0DAB0DAC0D30
:10096800AD0DAE0BB02CBD1FBA2CBB2CBC2C2A1461
:100978000130AE000310BA0DBB0DBC0DBD0DAE0BA2
:10098800BE2CFF30B8070318B90AFF30B907AC1FEF
:10099800CE2CCF2CAE2CBF01BD1FD32CD42CF02CC9
:1009A800FF303A05AE00FF303B05AF00FF303C0595
:1009B800B0007F303D05B100310830042F042E040B
:1009C8000319E72CE82CEB2CBF01BF0AF02C2A1CDA
:1009D800EE2CEF2CF02CE82C3F080319F42CF52C06
:1009E800262D0130AA07003003180130AB0700306C
:1009F80003180130AC07003003180130AD072D1C77
:100A0800062D072D262D2A08AE002B08AF002C082E
:100A1800B0002D08B1000130B200310DB10CB00C9E
:100A2800AF0CAE0CB20B112D3108AD003008AC0084
:100A38002F08AB002E08AA000130B8070318B90A1E
:100A48000030B9073908803AFF0080307F02031D63
:100A58002F2DFF303802031C322D332D412DFF304E
:100A680083120313B8000030B9000030AD00003025
:100A7800AC000030AB000030AA0083120313390821
:100A8800803AFF0080307F02031D4C2D0130380270
:100A980003184F2D502D5D2D83120313B801B90192
:100AA8000030AD000030AC000030AB000030AA00D0
:100AB800B701831203133808AE002E08BE003E1C8F
:100AC800662D672D692DAC176D2D7F30AE002E0871
:100AD800AC053E08AE0003102E0CAF002F08AD0089
:100AE8003708AE002E08AD04112C0800013083121F
:100AF8000313CB004B08E80764306806031D852DF7
:100B0800862D342E02300A128A1565230A128A119C
:100B1800700883120313CB007108CC00CD01CE01FD
:100B28004E08F8004D08F7004C08F6004B08F50091
:100B380000300A128A1136260A128A11780883129E
:100B48000313AD007708AC007608AB007508AA005F
:100B58004030A9009C30A8007A30A700E130A600F8
:100B68000A128A113C200A128A11831203132908D7
:100B7800C3002808C2002708C1002608C0000A12BE
:100B88008A1584270A128A11831203135D08CF007D
:100B98004F07B73E8400400883138000840A410849
:100BA80080005D08CB004B07B73E84000008CC00EE
:100BB800840A0008CD004C08F5004D08F600F7013E
:100BC800F80100300A128A1136260A128A117808AA
:100BD80083120313AD007708AC007608AB007508E4
:100BE800AA004130A9002030A8000030A70000303A
:100BF800A6000A128A119D230A128A11831203136E
:100C08002908C3002808C2002708C1002608C00018
:100C18000A128A1584270A128A11831203135D089F
:100C2800CE004E07B73E8400400883138000840A34
:100C3800410880000130CB004B08DD07E8010A308D
:100C48005D06031D282E292E2A2EDD010A128A157B
:100C58008D230A128A1183120313CB004B08DC0080
:100C68005C08080083120313A000200803193D2E16
:100C78003E2E522EF81F412E422E522E7509A200EA
:100C88007609A3007709A4007809A500A20A031928
:100C9800A30A0319A40A0319A50A5A2E7808A5005D
:100CA8007708A4007608A3007508A20078087704DE
:100CB80076047504031D612E622E6B2E0030F80039
:100CC8000030F7000030F6000030F500F12E9630C5
:100CD800F9007908A1007D2E0130F9007908A107F3
:100CE80001300310A50CA40CA30CA20CFF3E031D9D
:100CF800752EFE302505031D822E832E702E9F2E05
:100D08000130F9007908A1070130A2070030031863
:100D18000130A307003003180130A407003003187E
:100D28000130A50701300310A50CA40CA30CA20CDC
:100D3800FF3E031D972EFF302505031DA42EA52E6B
:100D4800842EB12E0130A1020130F9000310A20D4A
:100D5800A30DA40DA50DF90BAA2EA41BB42EB52E18
:100D6800BB2E023021020318BA2EBB2EA62E211844
:100D7800BE2EBF2EC72EFF30A205FF30A3057F3041
:100D8800A405FF30A5050310A10C2108F900FA01FC
:100D9800FB01FC0118300310F90DFA0DFB0DFC0DD9
:100DA800FF3E031DCF2E7908A2047A08A3047B080E
:100DB800A4047C08A50420080319E32EE42EE92ED8
:100DC800F81FE72EE82EE92EA5172508F8002408B5
:100DD800F7002308F6002208F50008008330910088
:100DE8008C1CF72EF82E482FFD30D00050088C05AB
:100DF800382F0A128A117A250A128A1183120313CC
:100E0800D0005008E40064080A128A1189270A12DF
:100E18008A118312031364080A128A15DC240A1241
:100E28008A110A128A15EE230A128A110A128A15E1
:100E380069220A128A110A128A1518270A128A11B7
:100E4800482F0A128A1569220A128A110A128A156B
:100E580018270A128A118312031365080A128A15C1
:100E680056240A128A11482F6308D000D10151086C
:100E7800003A0319402F482F5008003A0319FD2E55
:100E8800013A0319252F482F8B1C4B2F4C2F7C2FF1
:100E9800FD3083120313D00050088B056C2FEB0133
:100EA800EB0A0A128A1597210A128A110A128A1560
:100EB800DA210A128A110A128A152F220A128A11B5
:100EC8007C2FEB010A128A1591210A128A117C2FB4
:100ED8006B08D000D1015108003A0319742F7C2FF8
:100EE8005008003A0319532F013A0319652F7C2F34
:100EF800831203135508FF0054088A00530884001E
:100F0800520E8300FE0E7E0E0900FC000130F9002F
:100F1800790883120313E70732306706031D952FFC
:100F2800962FF62FE62F0A30F0000030F1007C08EB
:100F3800F900FA017908F2007A08F3000A128A1512
:100F480049260A128A117008FB007B0883120313D2
:100F5800E2000516DF30F9007908850562080A12F3
:100F68008A1589250A128A11831203138800E7015A
:100F7800E001E00AF62F0A30F0000030F1007C08AA
:100F8800F900FA017908F2007A08F3000A128A15C2
:100F980030250A128A117008FB007B08831203139C
:100FA800E1008516EF30F9007908850561080A1215
:100FB8008A1589250A128A11831203138800E7010A
:100FC800E001F62F6008F900FA017A08003A0319DF
:100FD800EE2FF62F7908003A0319972F013A0319D3
:100FE800BF2FF62F08000A128A159D220A128A11AD
:080FF800831603130515080020
:1013180063000800013401340134831203131215E9
:10132800833091000800FB30F0007008831203132B
:1013380092050800831603130615861406140B1667
:10134800080064008001840A0406031900340406B6
:10135800A6290A128A15E7210A128A158316031389
:10136800111408000A128A15E7210A128A15831631
:101378000313111508000A128A15F4210A128A1596
:1013880083160313111408000A128A15F4210A128D
:101398008A158316031311150800FB3083160313EF
:1013A800A000200883120313920508008312031378
:1013B8008801EF30F00070088505DF30F000700814
:1013C8008505E7010800831603131419EC29ED2994
:1013D800E72911081F39031DF229F329E729080015
:1013E800831603131419F929FA29F42911081F3946
:1013F800031DFF29002AF4290800831203138C1106
:1014080083160313911583128C1D0B2A0C2A072AA5
:101418008C1113080800F0000A128A15E7210A1235
:101428008A1570088312031393000A128A15E7219C
:101438000A128A150800003083160313B100013020
:10144800B0008630AF00A030AE000A128A15222400
:101458000A128A150800DF30F0007008831203139F
:101468008705FB30F00070088705EF30F000700842
:101478008605D601D701080083160313A0000A12B7
:101488008A15F4210A128A15831603132008831279
:10149800031393000A128A15F4210A128A15080008
:1014A800831203138801EF3083160313A00020086A
:1014B800831203138505DF3083160313A000200869
:1014C800831203138505E70108000130F000700856
:1014D80083120313E607C8306606031D742A752AAB
:1014E800812A0619782A792A7B2AEA01802A86180D
:1014F8007E2A7F2A802AE901E6010800DF30831668
:101508000313A0002008831203138705FB308316FA
:101518000313A0002008831203138705EF308316F6
:101528000313A0002008831203138605D601D701F0
:101538000800831203139F171F17831603131F171F
:101548009F17FE30A00020089F05FD30A00020084E
:101558009F05FB30A00020089F05F730A000200859
:101568009F05831203131F1408000A128A15AD2160
:101578000A128A15A2300A128A150F220A128A152F
:1015880071080A128A150F220A128A1573080A129C
:101598008A150F220A128A150A128A15B6210A120A
:1015A8008A15080083160313880183120313880120
:1015B800EF3083160313A00020088505EF30A00044
:1015C8002008831203138505DF3083160313A00058
:1015D80020088505DF30A000200883120313850545
:1015E8000800FB3083160313A0002008831203139E
:1015F80092059214FE3083160313A000200883126C
:1016080003139205833091008B170B17FD30831657
:101618000313A0002008831203138C0583160313F9
:101628008C148312031312150800DF30831603137A
:10163800A00020088705DF30A000200883120313CC
:101648008705FB3083160313A00020088705FB30AD
:10165800A0002008831203138705EF3083160313B5
:10166800A00020088605EF30A0002008831203138D
:1016780086050800F800F401F5017008F200F3018E
:101688007208F6007308F700781C4B2B4C2B522B72
:101698007608F4070318F50A7708F50701300310F0
:1016A800F60DF70DFF3E031D532B0310F80C7808B9
:1016B800031D5F2B602B482B7508F1007408F000A0
:1016C8000800F400F730F2007208831203139F0534
:1016D800EF30F20072089F05DF30F20072089F05B4
:1016E8007408F20002300310F20DFF3E031D772B41
:1016F8000310720DF30073089F041F151F19852B23
:10170800862B822B1E08F100831603131E08F00097
:101718000800FD01FB01FC01FD017D08F8007807C8
:10172800B73E840083130008F900840A0008FA0011
:101738007B087907FB007C0803187C0A7A07FC0001
:101748000130F8007808FD070A307D02031CAD2B34
:10175800AE2B912B0A30F0000030F1007C08F3002A
:101768007B08F2000A128A1598240A128A15700852
:1017780008000A128A15BF210A128A15A2300A1215
:101788008A1540220A128A158316031321080A12A1
:101798008A1540220A128A150A128A15BF210A12CE
:1017A8008A15A3300A128A1540220A128A150A12CB
:1017B8008A1501220A128A1583160313A300230827
:1017C800A4000A128A15C8210A128A15831603135F
:1017D800240808000C2C0130D6070318D70A00305B
:1017E800D707E8305606033003195706031DFD2BAB
:1017F800FE2B212C1030F00070088606D601D70188
:10180800212C0616022CEF30F00070088605212CDA
:10181800831203135E08F000F1017108003A0319FE
:10182800162C212C7008003A0319EF2B013A0319E2
:10183800052C033A0319072C212C080083120313E3
:1018480094169415831603132E08B2002F08B300BC
:101858003008B4003108B50002300310B20DB30DE2
:10186800B40DB50DFF3E031D312C3508A300340817
:10187800A2003308A1003208A0000030A7007A3087
:10188800A6001230A5000030A4000A128A15B0265E
:101898000A128A15831603132008FF3E9300871542
:1018A80007160800FD00013083120313D807031838
:1018B800D90A0030D907872C03305902E8300319B8
:1018C80058020318682C692C702C7D080A128A119A
:1018D80089270A128A15972CDF01DF0AD801D90156
:1018E8000A128A15DA210A128A15972CE830580646
:1018F800033003195906031D822C832C972CDF0112
:10190800D801D901972C5F08A000A1012108003A4D
:1019180003198F2C972C2008003A0319602C013AE0
:1019280003197A2C972C0800F501F6017008710448
:1019380003199F2CA02CD72CF701F70AAE2C0130E5
:101948000310F00DF10DFF3E031DA42C0130F4002F
:101958007408F707F11FB12CB22CA32C0130031027
:10196800F50DF60DFF3E031DB32C71087302031D20
:10197800BF2C70087202031CC22CC32CCA2C70081E
:10198800F2027108031CF303F3027514013003100B
:10199800F10CF00CFF3E031DCB2C0130F702031DA8
:1019A800D62CD72CB22C7608F1007508F000080068
:1019B800F300831203136508FB3EF000FF300318A1
:1019C8000030F1007108803A803C031DED2C70084E
:1019D80073020318F02CF12CFA2C831203138716C8
:1019E800FB30F00070088705DE012F2D83120313EA
:1019F8006508053EF000003003180130F100710859
:101A0800803AF20080307202031D0C2D73087002B8
:101A180003180F2D102D1A2D831203130715DF300D
:101A2800F00070088705DE01DE0A2F2D7308831287
:101A380003136506031D212D222D2F2DFB30F000E9
:101A480070088705DF30F000700887050230F00065
:101A58007008DE002F2D0800F601F31F342D352DF8
:101A68003C2DF209F309F20A0319F30AF601F60A02
:101A7800F11F3F2D402D452DF009F109F00A0319FA
:101A8800F10A7008710403194A2D4B2D7A2DF501BE
:101A9800F50A592D01300310F00DF10DFF3E031D1D
:101AA8004F2D0130F4007408F507F11F5C2D5D2DF2
:101AB8004E2D71087302031D632D70087202031CFA
:101AC800662D672D6D2D7008F2027108031CF30353
:101AD800F30201300310F10CF00CFF3E031D6E2DD4
:101AE8000130F502031D792D7A2D5D2D7608031935
:101AF8007E2D7F2D842DF209F309F20A0319F30ACA
:101B08007308F1007208F0000800F200AD2D3F30B4
:101B1800E72D0630E72D5B30E72D4F30E72D663097
:101B2800E72D6D30E72D7D30E72D0730E72D7F302D
:101B3800E72D6F30E72D7730E72D7C30E72D5830D3
:101B4800E72D5E30E72D7930E72D7130E72D003035
:101B5800E72D7208F000F1017108003A0319B52D5C
:101B6800AB2D7008003A03198B2D013A03198D2DFE
:101B7800033A03198F2D013A0319912D073A0319D6
:101B8800932D013A0319952D033A0319972D013A1C
:101B98000319992D0F3A03199B2D013A03199D2D0D
:101BA800033A03199F2D013A0319A12D073A031986
:101BB800A32D013A0319A52D033A0319A72D013ABC
:101BC8000319A92DAB2D08000A128A11F7270A124A
:101BD8008A150A128A1519230A128A150A128A15F1
:101BE8009E210A128A150A128A15D6220A128A1505
:101BF8000A128A151F220A128A150A128A15F52254
:101C08000A128A15FF3083160313A1000030A200C0
:101C18000A128A15BD230A128A1583160313B60001
:101C280065303602031C192E1A2E212E3C30B600C0
:101C3800360883120313E500312EFF30A10000306F
:101C4800A2000A128A15BD230A128A1583160313E5
:101C5800B600360883120313E5000A128A15D1214B
:101C68000A128A150A128A1554220A128A150A12A9
:101C78008A1582220A128A150A128A158C210A12DA
:101C88008A15402E0A128A111228F601F11F4D2ECC
:101C98004E2E552EF009F109F00A0319F10AF60142
:101CA800F60AF31F582E592E622EF209F309F20A8A
:101CB8000319F30A0130F4007408F606F701F80175
:101CC800700871040319692E6A2EA12EF501F50A10
:101CD800782E01300310F00DF10DFF3E031D6E2E1E
:101CE8000130F4007408F507F11F7B2E7C2E6D2E51
:101CF80001300310F70DF80DFF3E031D7D2E71080E
:101D08007302031D892E70087202031C8C2E8D2EFF
:101D1800942E7008F2027108031CF303F30277147F
:101D280001300310F10CF00CFF3E031D952E01301D
:101D3800F502031DA02EA12E7C2E76080319A52ED0
:101D4800A62EAB2EF709F809F70A0319F80A78083E
:101D5800F1007708F0000800003083160313AC0088
:101D68000030AB000030AA000030A900230822048C
:101D7800210420040319C12EC22E0F2FAD01AD0A74
:101D8800D22E0130A8000310A00DA10DA20DA30DA5
:101D9800A80BC72E0130A8002808AD07A31FD52E11
:101DA800D62EC52E0130A8000310A90DAA0DAB0D23
:101DB800AC0DA80BD82E23082702031DED2E2208F0
:101DC8002602031DED2E21082502031DED2E2008F5
:101DD8002402031CF02EF12E002F2008A402210853
:101DE800031C210FA5022208031C220FA6022308A8
:101DF800031C230FA702291401300310A30CA20C03
:101E0800A10CA00CFF3E031D012F0130AD02031DE4
:101E18000E2F0F2FD62E2C08A3002B08A2002A085D
:101E2800A1002908A0000800712F6A0803191D2FB6
:101E38001E2F232F6908031D222F232F832FE30131
:101E4800E30AEA01EA0AE901E90A832F13305B028F
:101E5800883003195A020318322F332F602F6A086B
:101E6800031D372F382F472F4B30650203183D2F9E
:101E78003E2F472F0530F4007408E507DA01DB012F
:101E8800EA01EA0A832F6908031D4B2F4C2F592FAB
:101E980024306502031C512F522F592F0530E502BB
:101EA800DA01DB01E901E90A832F0130DA070318B7
:101EB800DB0A0030DB07832FE301DA01DB01FF30A7
:101EC800F1000030F2006508F4007408F3000A120B
:101ED8008A15B9220A128A15832F831203136308FD
:101EE800F400F5017508003A03197B2F832F740855
:101EF800003A0319192F013A03192A2F832F0800D2
:101F0800031083120313420D430DC4004408CA0092
:101F18004A08031D902F912F9A2F0030C3000030DC
:101F2800C2000030C1000030C000FF2F4008C400CC
:101F38004108C5004208C6004308C7001F30031007
:101F4800C70CC60CC50CC40CFF3E031DA32F4408C8
:101F5800C8004808C900C217FF30C005FF30C105D6
:101F6800FF30C2050030C3059630CA02CA1FBD2F14
:101F7800BE2FD82F4A08803A973E0318C42FC52F82
:101F8800C62F912F01300310C30CC20CC10CC00C1A
:101F9800FF3E031DC72F0130C4004408CA07031DB4
:101FA800D62FD72FC62FEF2F20304A02031CDD2F44
:101FB800DE2FEA2F912F0130C4000310C00DC10D90
:101FC800C20DC30DC40BE12F0130CA024A08031D1C
:101FD800EE2FEF2FDF2F49080319F32FF42FFF2FD0
:101FE800C009C109C209C309C00A0319C10A0319F2
:081FF800C20A0319C30A080024
:02400E00BB3FB6
:00000001FF
