:020000040000FA
:100000000A128A1112280800FE00030E831203133D
:10001000A4000408A5000A08A6007F08A7000A1289
:100020008A11ED2E0A128A1115280A128A11FF2749
:100030000A128A11FD008313A0308400EC300A16E6
:100040008A11B8250A128A116030840068300A16B5
:100050008A11B8250A128A11FB01FC0183010A12D8
:100060008A15442DFF0000308A007F088207372858
:100070000A128A15172A0A168A11F82E0A128A15E8
:10008000212F0A128A15BC2C0A168A11632E0A1215
:100090008A118B2D0A168A11AE2E831203133E0885
:1000A0008039C3004308C8003E08C3004307C400AA
:1000B0004408CE00BD1F5D285E285F284E144E0800
:1000C00003196328642873284E0A031D68286928C9
:1000D00071280030BE000030BD000030BC00003090
:1000E000BB00BD177B280030BE000030BD000030D3
:1000F000BC000030BB0042088039C3004308C8067A
:100100004208C3004307C4004408C900C11F89282E
:100110008A288B284914490803198F2890289F287A
:10012000490A031D942895289D280030C2000030FC
:10013000C1000030C0000030BF00C117A728003048
:10014000C2000030C1000030C0000030BF004908CC
:100150000319AB28AC28B1284E08031DB028B128DC
:10016000BA280030BE000030BD000030BC000030B6
:10017000BB00AD2B3B08C3004308A80041080A168A
:100180008A1120270A128A11831203132908D40026
:100190002808D3005308C300C401C501C60146089E
:1001A000CD004508CC004408CB004308CA005408E1
:1001B000C300C401C501C6014608D2004508D100EC
:1001C0004408D0004308CF003C08C3004308A800FF
:1001D00040080A168A1120270A128A118312031373
:1001E0002908D4002808D3005308C300C401C5015E
:1001F000C6014308CA07440803110318013E031946
:100200000229CB07450803110318013E03190929E8
:10021000CC07460803110318013E03191029CD0726
:100220005408C300C401C501C6014308CF074408F0
:1002300003110318013E03191E29D00745080311B5
:100240000318013E03192529D10746080311031895
:10025000013E03192C29D2073D08C3004308A8001A
:100260003F080A168A1120270A128A1183120313E3
:100270002908D4002808D3005308C300C401C501CD
:10028000C6014308CA07440803110318013E0319B5
:100290004A29CB07450803110318013E03195129C8
:1002A000CC07460803110318013E03195829CD074E
:1002B0005408C300C401C501C6014308CF07440860
:1002C00003110318013E03196629D00745080311DD
:1002D0000318013E03196D29D107460803110318BD
:1002E000013E03197429D2070830C3000310CA0D58
:1002F000CB0DCC0DCD0DC30B76293C08C3004308B4
:10030000A8003F080A168A1120270A128A118312B0
:1003100003132908D4002808D3005308C300540845
:10032000C400C501C6014308CA07440803110318E5
:10033000013E03199C29CB07450803110318013E10
:100340000319A329CC07460803110318013E03191A
:10035000AA29CD073B08C3004308A80040080A1695
:100360008A1120270A128A11831203132908D40044
:100370002808D3005308C3005408C400C501C601AF
:100380004308CA07440803110318013E0319C92989
:10039000CB07450803110318013E0319D029CC07E8
:1003A000460803110318013E0319D729CD07083069
:1003B000C3000310CA0DCB0DCC0DCD0DC30BD92935
:1003C0003B08C3004308A8003F080A168A112027EB
:1003D0000A128A11831203132908D4002808D300B3
:1003E0005308C3005408C400C501C6014308CA0726
:1003F000440803110318013E0319FF29CB074508E0
:1004000003110318013E0319062ACC0746080311FD
:100410000318013E03190D2ACD073C08C300430809
:10042000A80041080A168A1120270A128A1183128D
:1004300003132908D4002808D3005308C300540824
:10044000C400C501C6014308CF07440803110318BF
:10045000013E03192C2AD007450803110318013E59
:100460000319332AD107460803110318013E031963
:100470003A2AD2073D08C3004308A80040080A16DC
:100480008A1120270A128A11831203132908D40023
:100490002808D3005308C3005408C400C501C6018E
:1004A0004308CF07440803110318013E0319592AD2
:1004B000D007450803110318013E0319602AD1072C
:1004C000460803110318013E0319672AD2073D08A5
:1004D000C3004308A80041080A168A1120270A12FF
:1004E0008A11831203132908D4002808D300530863
:1004F000C3005408C400C501C60108300310C30D71
:10050000C40DC50DC60DFF3E031D7E2A4308CF074F
:10051000440803110318013E03198F2AD007450828
:1005200003110318013E0319962AD1074608031147
:100530000318013E03199D2AD2074A08C3004B083D
:10054000C4004C08C5004D08C60018300310C60C86
:10055000C50CC40CC30CFF3E031DA62A4308CF07DD
:10056000440803110318013E0319B72AD0074508B0
:1005700003110318013E0319BE2AD10746080311CF
:100580000318013E0319C52AD2070830C30003101F
:10059000CA0DCB0DCC0DCD0DC30BC72A4E08490794
:1005A000C300C401C40D4308823ED30044080318AD
:1005B000013EFF3ED400F92A0130C3000310CF0DE5
:1005C000D00DD10DD20DC30BDE2ACD1FE82AE92AAA
:1005D000EA2A4F140130C3000310CA0DCB0DCC0D15
:1005E000CD0DC30BEC2AFF30D3070318D40AFF301C
:1005F000D407D11FFC2AFD2ADC2AC901CD1F012BFB
:10060000022B1E2BFF304A05C300FF304B05C400F0
:10061000FF304C05C5007F304D05C6004608450437
:10062000440443040319152B162B192BC901C90ABD
:100630001E2B4F1C1C2B1D2B1E2B162B4908031980
:10064000222B232B542B0130CF070030031801300D
:10065000D007003003180130D107003003180130F3
:10066000D207521C342B352B542B4F08C300500893
:10067000C4005108C5005208C6000130C700460D2D
:10068000C60CC50CC40CC30CC70B3F2B4608D200CC
:100690004508D1004408D0004308CF000130D307FB
:1006A0000318D40A0030D4075408803AFF00803081
:1006B0007F02031D5D2BFF305302031C602B612B57
:1006C0006C2B7F3083120313D2008030D1000030B6
:1006D000D0000030CF00A12B831203135408803ABE
:1006E000FF0080307F02031D772B01305302031877
:1006F0007A2B7B2B872B003083120313D200003020
:10070000D1000030D0000030CF00C801A12B8312EF
:1007100003135308C3004308CE00FF30CF05FF305A
:10072000D0057F30D1050030D2054E1C982B992B77
:100730009A2BD1174E08C3000310430CC400440881
:10074000D2004808C3004308D2045208BE00510832
:10075000BD005008BC004F08BB0008008312031303
:1007600042088039C3004308CC004208C300430755
:10077000C4004408D300C11FBE2BBF2BC02B531491
:1007800053080319C42BC52BD52B530A031DC92BA2
:10079000CA2BD22B0030C2000030C1000030C00094
:1007A0000030BF00C117C201DD2B0030C200003095
:1007B000C1000030C0000030BF003E088039C300D7
:1007C0004308CC063E08C3004307C4004408D400D5
:1007D000BD1FEB2BEC2BED2B541454080319F12BFC
:1007E000F22B022C540A031DF62BF72BFF2B0030A3
:1007F000BE000030BD000030BC000030BB00BD17A3
:10080000BE010A2C0030BE000030BD000030BC002C
:100810000030BB003E083D043C043B04031D112C8A
:10082000122C2B2C0030C2000030C1000030C00060
:100830000030BF008030C1047F30C2044C08C300C8
:100840004308C2044208BE004108BD004008BC0085
:100850003F08BB008A2D5308031D2F2C302C392C48
:100860000030BE000030BD000030BC000030BB00D6
:100870008A2D5308C300C4014408C600540843022B
:10088000C500031CC60345087F3ECD00460803187B
:10089000013E003ECE004208CB004108CA0040089D
:1008A000C9003F08C8000030C2000030C10000305D
:1008B000C0000030BF000030D2000030D100003056
:1008C000D0000030CF00D401AF2C54080319692C9C
:1008D0006A2C8A2C0130C3000310C80DC90DCA0D43
:1008E000CB0DC30B6C2C0130C3000310BF0DC00D2A
:1008F000C10DC20DC30B752CD21F7F2C802C812CF7
:100900003F140130C3000310CF0DD00DD10DD20D17
:10091000C30B832C3E084B02031D982C3D084A0252
:10092000031D982C3C084902031D982C3B084802E3
:10093000031C9B2C9C2CAB2C52173B08C8023C0878
:10094000031C3C0FC9023D08031C3D0FCA023E08B0
:10095000031C3E0FCB020130C3004308D4071A30FA
:100960005402031CB42CB52C652C4B084A044904D2
:1009700048040319BC2CBD2CDC2C4F14DC2C01309A
:10098000C3000310BF0DC00DC10DC20DC30BC12CA0
:10099000D21FCB2CCC2CCD2C3F140130C300031024
:1009A000CF0DD00DD10DD20DC30BCF2CFF30CD0705
:1009B0000318CE0AFF30CE07C11FDF2CE02CBF2C5E
:1009C000D401D21FE42CE52C012DFF304F05C300CC
:1009D000FF305005C400FF305105C5007F3052057F
:1009E000C60046084504440443040319F82CF92CB6
:1009F000FC2CD401D40A012D3F1CFF2C002D012D0D
:100A0000F92C54080319052D062D372D0130BF0789
:100A1000003003180130C007003003180130C1074F
:100A2000003003180130C207421C172D182D372D36
:100A30003F08C3004008C4004108C5004208C60082
:100A40000130C700460DC60CC50CC40CC30CC70B47
:100A5000222D4608C2004508C1004408C0004308D2
:100A6000BF000130CD070318CE0A0030CE074E0874
:100A7000803AFF0080307F02031D402DFF304D0281
:100A8000031C432D442D522DFF3083120313CD0040
:100A90000030CE000030C2000030C1000030C00085
:100AA0000030BF00831203134E08803AFF008030ED
:100AB0007F02031D5D2D01304D020318602D612D55
:100AC0006E2D83120313CD01CE010030C200003021
:100AD000C1000030C0000030BF00CC0183120313FE
:100AE0004D08C3004308D300531C772D782D7A2D71
:100AF000C1177E2D7F30C3004308C1055308C300D2
:100B00000310430CC4004408C2004C08C30043084F
:100B1000C204222C080083120313B101B101033077
:100B2000AE002E08A80031080A168A1178260A128B
:100B30008A11DF3E84008313000883120313AF0081
:100B40000330B0003008A80031080A168A11782650
:100B50000A128A11DE3E8400831203132F088313C6
:100B60008000E72D0608AE0002300310AE0CFF3EF9
:100B7000031DB52D2E080139AF000330B000300839
:100B8000A80031080A168A1178260A128A11DF3E57
:100B90008400831203132F0883138000B62E0608E7
:100BA000AE0003102E0C0139AF000330B000300846
:100BB000A80031080A168A1178260A128A11DF3E27
:100BC0008400831203132F0883138000B62E31088C
:100BD000AE00AF012F08003A0319EF2DB62E2E08F4
:100BE000003A0319B22D013A0319CF2DB62E033066
:100BF000AE002E08A80031080A168A1178260A12BB
:100C00008A11DE3E840083130008031D082E092E7E
:100C1000DB2E033083120313AE002E08A800310828
:100C20000A168A1178260A128A11DF3E840083137D
:100C30000008031D1C2E1D2EDB2E03308312031310
:100C4000AE002E08A80031080A168A1178260A126A
:100C50008A11E03E840083138001800ADB2E03307A
:100C6000AE002E08A80031080A168A1178260A124A
:100C70008A11DF3E840083130008031D402E412E9D
:100C8000DB2E023083120313AE000330AF002F08B7
:100C9000A80031080A168A1178260A128A11E03E45
:100CA0008400831203132E0883138000DB2E03308D
:100CB000AE002E08A80031080A168A1178260A12FA
:100CC0008A11DE3E840083130003031D682E692E03
:100CD000DB2E033083120313AE002E08A800310868
:100CE0000A168A1178260A128A11DF3E84008313BD
:100CF0000003031D7C2E7D2EDB2E03308312031395
:100D0000AE000330AF002F08A80031080A168A1180
:100D100078260A128A11E03E8400831203132E08FB
:100D200083138000DB2E0330AE002E08A8003108AC
:100D30000A168A1178260A128A11DF3E840083136C
:100D40000003031DA42EA52EDB2E033083120313F4
:100D5000AE002E08A80031080A168A1178260A1259
:100D60008A11E03E840083138001DB2E0330AE0045
:100D70002E08A80031080A168A1178260A128A114C
:100D8000E03E84008313000883120313AF00B00118
:100D90003008003A0319CD2EDB2E2F08003A031934
:100DA000F72D013A03192F2E033A0319572E013A52
:100DB0000319932EDB2E013083120313AE002E088D
:100DC000B10702303102031CE62EE72E8F2D0A12E6
:100DD0008A153D240A128A1108000C1CF02EF12EEF
:100DE0009F2F7B088E007C088F00FE30A00020081B
:100DF0008C05FA010630A0002008F0007A080A16D7
:100E00008A114E260A128A11A03E8400831300081C
:100E100003190B2F0C2F932F063083120313A000FE
:100E20002008F0007A080A168A114E260A128A1142
:100E3000A13E84008313000883120313A100840AD7
:100E40000008A20021082204031D272F282F7E2F2F
:100E50000130A0000630A1002108F0007A080A162F
:100E60008A114E260A128A11A53E840083120313AA
:100E70002008831380070630A0002008F0007A08BD
:100E80000A168A114E260A128A11A33E8400831381
:100E9000000883120313A100840A0008A20021089D
:100EA00022040319542F552F932F0630A000200839
:100EB000F0007A080A168A114E260A128A11A33EF9
:100EC00084008313000883120313A100840A00081E
:100ED000A2000630A3002308F0007A080A168A113F
:100EE0004E260A128A11A13E8400831203132108A0
:100EF00083138000840A22088000932F0630A0000C
:100F00002008F0007A080A168A114E260A128A1161
:100F1000A13E8400013083138002840F0030031C43
:100F2000800380028403013083120313A000200891
:100F3000FA0707307A02031C9E2F9F2FFA2E8B1C74
:100F4000A22FA32FD12FFD30A00020088B05C12F89
:100F5000FD01FD0A0A168A11DB250A128A110A16FA
:100F60008A110E260A128A110A128A1572200A1292
:100F70008A11D12FFD010A168A11B4250A128A118D
:100F8000D12F7D08A000A1012108003A0319C92F23
:100F9000D12F2008003A0319A82F013A0319BA2FBC
:100FA000D12F831203132708FF0026088A00250883
:100FB0008400240E8300FE0E7E0E09000A168A119C
:100FC000C0250A128A11A2300A168A113C260A127A
:100FD0008A118312031329080A168A113C260A1261
:100FE0008A11831203132B080A168A113C260A124F
:100FF0008A110A168A11C9250A128A1108000134B9
:101002000A168A1173270A128A1583160313051505
:10101200080083120313941694153608BA00370891
:10102200BB003808BC003908BD0002300310BA0DFD
:10103200BB0DBC0DBD0DFF3E031D17283D08AB00C7
:101042003C08AA003B08A9003A08A8000030AF00FB
:101052007A30AE001230AD000030AC000A128A15B0
:101062007A220A128A15831203132808FF3E831676
:101072000313930087150716080083120313B501A3
:10108200B301B401B5013508B0003007CA3E84008F
:1010920083130008B100840A0008B2003308310744
:1010A200B30034080318340A3207B4000130B00028
:1010B2003008B5070A303502031C6028612844282D
:1010C2000A30A8000030A9003408AB003308AA0097
:1010D2000A128A15B2200A128A15831203132808EB
:1010E2000800FE30F4007408831203139005F8011F
:1010F200F9010630F4007408F00078080A168A1123
:101102004E260A128A15A33E840083130008F500B6
:10111200840A0008F6000630F7007708F000780825
:101122000A168A114E260A128A15A13E84007508F3
:1011320083138000840A760880000130F8070318C0
:10114200F90A0030F9077908803AFF0080307F02FF
:10115200031DAD2807307802031CB028B1287A2875
:10116200080083120313AE01AF01280829040319F2
:10117200BB28BC28F328AD01AD0ACA2801300310F0
:10118200A80DA90DFF3E031DC0280130AC002C089C
:10119200AD07A91FCD28CE28BF2801300310AE0D00
:1011A200AF0DFF3E031DCF2829082B02031DDB28AC
:1011B20028082A02031CDE28DF28E6282808AA02BB
:1011C2002908031CAB03AB022E1401300310A90C37
:1011D200A80CFF3E031DE7280130AD02031DF228D3
:1011E200F328CE282F08A9002E08A8000800831291
:1011F2000313AE01AB1FFE28FF280629AA09AB097B
:10120200AA0A0319AB0AAE01AE0AA91F09290A29C3
:101212000F29A809A909A80A0319A90A2808290453
:101222000319142915294429AD01AD0A23290130D6
:101232000310A80DA90DFF3E031D19290130AC00B2
:101242002C08AD07A91F26292729182929082B02AE
:10125200031D2D2928082A02031C30293129372988
:101262002808AA022908031CAB03AB0201300310B1
:10127200A90CA80CFF3E031D38290130AD02031D45
:101282004329442927292E080319482949294E2987
:10129200AA09AB09AA0A0319AB0A2B08A9002A0852
:1012A200A800080083120313AA0079293F30B3294A
:1012B2000630B3295B30B3294F30B3296630B329E6
:1012C2006D30B3297D30B3290730B3297F30B3297C
:1012D2006F30B3297730B3297C30B3295830B32922
:1012E2005E30B3297930B3297130B3290030B32984
:1012F2002A08A800A9012908003A03198129772997
:101302002808003A03195729013A03195929033ABF
:1013120003195B29013A03195D29073A03195F2969
:10132200013A03196129033A03196329013A03199E
:1013320065290F3A03196729013A03196929033A02
:1013420003196B29013A03196D29073A03196F2909
:10135200013A03197129033A03197329013A03194E
:1013620075297729080083120313AE000630AC00FA
:101372002C08A8002E080A168A1178260A128A1545
:10138200A03E840083130008031DC829C929D2295D
:10139200023083120313AC002C0883160313E800F7
:1013A200D229063083120313AC002C08A8002E08A1
:1013B2000A168A1178260A128A15A03E840083131F
:1013C2008001063083120313AC002C08A8002E08FB
:1013D2000A168A1178260A128A15A13E84008313FE
:1013E2008001840A8001063083120313AC002C08AA
:1013F200A8002E080A168A1178260A128A15A33E18
:10140200840083138001840A80010630831203134F
:10141200AC002C08A8002E080A168A1178260A1297
:101422008A15A53E840083138001080083120313EA
:101432006508031D1D2A1E2A742A6708FB3EA9009F
:10144200FF3003180030AA002A08803A803C031DAE
:101452002C2A2908660203182F2A302A3B2A8312D3
:1014620003138716FB30A900290887058316031387
:10147200EA01792A831203136708053EA9000030A6
:1014820003180130AA002A08803AAB0080302B02F0
:10149200031D4D2A660829020318502A512A5E2A82
:1014A200831203130715DF30A900290887050616E2
:1014B20083160313EA01EA0A792A831203136608E0
:1014C2006706031D652A662A732AFB30A9002908CC
:1014D2008705DF30A90029088705EF30A900290810
:1014E2008605592A792A0A168A111D260A128A1590
:1014F2000800003083120313B4000030B300003040
:10150200B2000030B1002B082A0429042804031970
:101512008B2A8C2AD92AB501B50A9C2A0130B0003F
:101522000310A80DA90DAA0DAB0DB00B912A013025
:10153200B0003008B507AB1F9F2AA02A8F2A0130BE
:10154200B0000310B10DB20DB30DB40DB00BA22A51
:101552002B082F02031DB72A2A082E02031DB72AC1
:1015620029082D02031DB72A28082C02031CBA2AB7
:10157200BB2ACA2A2808AC022908031C290FAD027B
:101582002A08031C2A0FAE022B08031C2B0FAF02E2
:10159200311401300310AB0CAA0CA90CA80CFF3EAD
:1015A200031DCB2A0130B502031DD82AD92AA02A4D
:1015B2003408AB003308AA003208A9003108A80099
:1015C200080083120313AE01A91FE82AE92AF02AB0
:1015D200A809A909A80A0319A90AAE01AE0AAB1FF4
:1015E200F32AF42AFD2AAA09AB09AA0A0319AB0AAB
:1015F2000130AC002C08AE06AF01B0012808290466
:101602000319042B052B3C2BAD01AD0A132B013022
:101612000310A80DA90DFF3E031D092B0130AC00DC
:101622002C08AD07A91F162B172B082B013003100E
:10163200AF0DB00DFF3E031D182B29082B02031D11
:10164200242B28082A02031C272B282B2F2B28089F
:10165200AA022908031CAB03AB022F1401300310AA
:10166200A90CA80CFF3E031D302B0130AD02031D57
:101672003B2B3C2B172B2E080319402B412B462BBF
:10168200AF09B009AF0A0319B00A3008A9002F0840
:10169200A800080083120313B200B301542B0130D7
:1016A200B0003008B3070630B0003008A800330895
:1016B2000A168A1178260A128A15A03E840083131C
:1016C20000080319652B662B6E2B07308312031358
:1016D2003302031C6D2B6E2B502B07308312031326
:1016E2003306031D752B762B772BC02B3208B000E7
:1016F2000630B1003108A80033080A168A1178268C
:101702000A128A15A03E8400831203133008831341
:1017120080000630B0003008A80033080A168A118B
:1017220078260A128A15A13E8400831203132C081C
:1017320083138000840A2D0880000630B000300830
:10174200A80033080A168A1178260A128A15A33EBF
:101752008400831203132E0883138000840A2F0847
:1017620080000630B0003008A80033080A168A113B
:1017720078260A128A15A53E840083138001080088
:10178200031083120313570D580DD9005908DF00B7
:101792005F08031DCD2BCE2BD72B0030D800003095
:1017A200D7000030D6000030D5003C2C5508D900B7
:1017B2005608DA005708DB005808DC001F30031017
:1017C200DC0CDB0CDA0CD90CFF3E031DE02B5908B4
:1017D200DD005D08DE00D717FF30D505FF30D605E6
:1017E200FF30D7050030D8059630DF02DF1FFA2B15
:1017F200FB2B152C5F08803A973E0318012C022C14
:10180200032CCE2B01300310D80CD70CD60CD50CE0
:10181200FF3E031D042C0130D9005908DF07031DC8
:10182200132C142C032C2C2C20305F02031C1A2C9A
:101832001B2C272CCE2B0130D9000310D50DD60D31
:10184200D70DD80DD90B1E2C0130DF025F08031D06
:101852002B2C2C2C1C2C5E080319302C312C3C2CEC
:10186200D509D609D709D809D50A0319D60A031901
:10187200D70A0319D80A0800A92C033083160313C8
:1018820060060319452C462C4C2C03306306031DBD
:101892004B2C4C2CBB2C83120313E501E50ABB2C09
:1018A2001330831603136702883003196602031884
:1018B2005B2C5C2C8F2C03306006031D612C622C88
:1018C200732C4B308312031367020318692C6A2CA2
:1018D200732C0530AC002C08E70783160313E601CE
:1018E200E701BB2C0330831603136306031D7A2C16
:1018F2007B2C862C2430831203136702031C822C58
:10190200832C862C0530E7026E2C143083160313C9
:10191200E6070318E70A0030E707BB2C831203131C
:10192200E50183160313E601E701FF308312031377
:10193200A9000030AA006708AC002C08AB000A120C
:101942008A11DE270A128A1583120313E101BB2CC6
:10195200831203136508AC00AD012D08003A031988
:10196200B32CBB2C2C08003A03193E2C013A031964
:10197200512CBB2C0800831203136108031DC22CD7
:10198200C32C432DCE2C6608B1003108E2002F2D66
:101992006708B1003108E2002F2D6508B100B201DD
:1019A2003208003A0319D62C2F2D3108003A0319B8
:1019B200C42C013A0319C92C2F2D0A30A80000307B
:1019C200A9006208B100B2013108AA003208AB00D6
:1019D2000A128A15E2220A128A15831203132808B0
:1019E200B3003308E4000516DF30B1003108850585
:1019F20064080A128A1553210A128A1583120313E4
:101A0200880083160313EB01EB0A432D0A30A8006A
:101A12000030A9006208B100B2013108AA00320800
:101A2200AB000A128A15F8200A128A1583120313D0
:101A32002808B3003308E3008516EF30B1003108FF
:101A4200850563080A128A1553210A128A15831220
:101A52000313880083160313EB01432D831603132C
:101A62006B0883120313B100B2013208003A031962
:101A72003B2D432D3108003A0319DE2C013A03199C
:101A8200072D432D08000A128A1501200A128A1511
:101A92000A168A11D1260A128A150A168A11D22525
:101AA2000A128A150A168A118F260A128A150A162E
:101AB2008A112C260A128A150A168A119F270A12DF
:101AC2008A15003083120313AC00AD000030AE0063
:101AD200AF0004300A128A154B230A128A1500300D
:101AE20083120313AC00AD006430AE000030AF00CF
:101AF20007300A128A154B230A128A150030831204
:101B02000313AC00AD003230AE000030AF000A303B
:101B12000A128A154B230A128A1500308312031304
:101B2200AC00AD00E830AE000330AF000D300A1259
:101B32008A154B230A128A15003083120313AC0054
:101B4200AD006430AE000030AF0001300A128A15D9
:101B52004B230A128A15003083120313AC00AD0026
:101B62001430AE000030AF0010300A128A154B2339
:101B72000A128A15003083120313AC00AD00E8305C
:101B8200AE000330AF0013300A128A154B230A123B
:101B92008A150A128A15D3250A128A15CA2D0A1223
:101BA2008A1112288316031796010630831603132F
:101BB200EC006C0883120313A8008316031716089F
:101BC2000A168A1178260A128A15A53E8400831302
:101BD20000080319ED2DEE2D4C2E0630831603134B
:101BE200EC006C0883120313A8008316031716086F
:101BF2000A168A1178260A128A15A03E84008313D7
:101C0200000883160313ED006D0883160317950071
:101C120015080A128A1132200A128A150630831612
:101C22000313EC006C0883120313A8008316031736
:101C320016080A168A1178260A128A15A53E840009
:101C4200013083138002063083160313EC006C0804
:101C520083120313A8008316031716080A168A11A3
:101C620078260A128A15A33E84008313000883167D
:101C72000313ED00840A0008EE006D086E04031DD4
:101C8200432E442E4C2E8316031716080A128A1569
:101C9200B4210A128A15013083160313EC006C0872
:101CA20083160317960707301602031C592E5A2E65
:101CB200D62D0A128A1103200A128A150A168A11CF
:101CC200B2250A128A15080083120313B5003508DB
:101CD20003196C2E6D2E812EB01F702E712E812E47
:101CE2002D09B7002E09B8002F09B9003009BA0032
:101CF200B70A0319B80A0319B90A0319BA0A892ECD
:101D02003008BA002F08B9002E08B8002D08B70015
:101D120030082F042E042D04031D902E912E9A2E8E
:101D22000030B0000030AF000030AE000030AD0037
:101D3200202F9630B1003108B600AC2E0130B10030
:101D42003108B60701300310BA0CB90CB80CB70C45
:101D5200FF3E031DA42EFE303A05031DB12EB22E06
:101D62009F2ECE2E0130B1003108B6070130B707E1
:101D7200003003180130B807003003180130B907EA
:101D8200003003180130BA0701300310BA0CB90C45
:101D9200B80CB70CFF3E031DC62EFF303A05031DDB
:101DA200D32ED42EB32EE02E0130B6020130B10074
:101DB2000310B70DB80DB90DBA0DB10BD92EB91B61
:101DC200E32EE42EEA2E023036020318E92EEA2E22
:101DD200D52E3618ED2EEE2EF62EFF30B705FF303B
:101DE200B8057F30B905FF30BA050310B60C3608C6
:101DF200B100B201B301B40118300310B10DB20D3C
:101E0200B30DB40DFF3E031DFE2E3108B704320898
:101E1200B8043308B9043408BA0435080319122F78
:101E2200132F182FB01F162F172F182FBA173A0873
:101E3200B0003908AF003808AE003708AD0008001E
:101E4200831203136508031D272F282FFF2F02304B
:101E52000A168A1149270A128A15831203132808BF
:101E6200831603179000831203132908831603179E
:101E7200910092019301130883120313B000831699
:101E82000317120883120313AF00831603171108F6
:101E920083120313AE008316031710088312031371
:101EA200AD0000300A128A1565260A128A158312BD
:101EB20003133008C2002F08C1002E08C0002D08ED
:101EC200BF004030BE009C30BD007A30BC00E13023
:101ED200BB000A128A114D200A128A1583120313BB
:101EE2003E08D8003D08D7003C08D6003B08D50084
:101EF2000A128A15C1230A128A1583120313600873
:101F02008316031794001407CA3E84008312031336
:101F1200550883138000840A5608800060088316DF
:101F2200031790001007CA3E840000089100840A3B
:101F320000089200110883120313AD0083160317E1
:101F4200120883120313AE00AF01B00100300A126F
:101F52008A1565260A128A15831203133008C200F5
:101F62002F08C1002E08C0002D08BF004130BE005E
:101F72002030BD000030BC000030BB000A128A11C4
:101F8200AE230A128A15831203133E08D8003D08B5
:101F9200D7003C08D6003B08D5000A128A15C12397
:101FA2000A128A158312031360088316031793001B
:101FB2001307CA3E8400831203135508831380005B
:101FC200840A560880000130831603179000100817
:101FD20083120313E0070A306006031DF12FF22F6C
:101FE200F32FE0010A128A153E200A128A1583167F
:0E1FF20003179000100883120313E600080086
:102B6400630008008312031310140800640080013A
:102B7400840A0406031900340406B92D0A168A11BE
:102B8400F3250A168A1183160313111408000A1672
:102B94008A11F3250A168A118316031311150800E6
:102BA400831603130615861406140B16E001E301BD
:102BB4000800831203138801EF30F00070088505C4
:102BC400DF30F000700885050800831203138801C4
:102BD400EF30A80028088505DF30A80028088505FF
:102BE4000800831603131419F82DF92DF32D110879
:102BF4001F39031DFE2DFF2DF32D0800831203132F
:102C04008C1183160313911583128C1D0A2E0B2E1F
:102C1400062E8C1113080800DF30F00070088312B0
:102C240003138705FB30F00070088705EF30F000D0
:102C3400700886050800DF3083120313A8002808F3
:102C44008705FB30A80028088705EF30A80028086E
:102C540086050800003083120313B9000130B80060
:102C64008630B700A030B6000A128A150A200A1668
:102C74008A11080083120313A8000A168A11F32587
:102C84000A168A1183120313280893000A168A115C
:102C9400F3250A168A110800F200F301721C532E60
:102CA400542E582E7008F1007108F3070310F00D2C
:102CB4000310F20C7208031D602E612E502E73084F
:102CC4000800831203136508031D692E6A2E772EEC
:102CD400831603136A08031D702E712E772E10308D
:102CE40083120313A800280886060800831203131E
:102CF400AB00AA012B1C7F2E802E842E2808A9004D
:102D04002908AA070310A80D0310AB0C2B08031DF8
:102D14008C2E8D2E7C2E2A0808008316031388011E
:102D2400831203138801EF30A800280883160313C5
:102D34008505EF3083120313A80028088505DF30CA
:102D4400A8002808831603138505DF3083120313B4
:102D5400A800280885050800831203136503031DD2
:102D6400B42EB52ED02EC02EE101E10A0A168A1126
:102D7400E7250A168A11D02EE101D02E6108A90098
:102D8400AA012A08003A0319C82ED02E2908003AAD
:102D94000319B62E013A0319BE2ED02E0800DF30D7
:102DA40083120313A8002808831603138705DF3052
:102DB40083120313A80028088705FB30A8002808FD
:102DC400831603138705FB3083120313A800280816
:102DD4008705EF30A8002808831603138605EF3013
:102DE40083120313A800280886050800FF30831205
:102DF4000313A9000030AA000A168A11CF270A1665
:102E04008A1183120313AD0065302D02031C0B2FAE
:102E14000C2F112F3C30AD002D08E7001F2FFF3081
:102E2400A9000030AA000A168A11CF270A168A11AF
:102E340083120313AD002D08E70008008312031367
:102E4400B000AC01AD012808AA00AB012A08AE000D
:102E54002B08AF00301C2F2F302F362F2E08AC0735
:102E64000318AD0A2F08AD0701300310AE0DAF0DE6
:102E7400FF3E031D372F0310B00C3008031D432FF2
:102E8400442F2C2F2D08A9002C08A8000800831219
:102E94000313AC00F730AA002A089F05EF30AA00FC
:102EA4002A089F05DF30AA002A089F052C08AA00DB
:102EB40002300310AA0DFF3E031D5B2F03102A0DE1
:102EC400AB002B089F041F151F19692F6A2F662F4B
:102ED4001E08A900831603131E0883120313A800F7
:102EE4000800831203139F171F17831603131F175A
:102EF4009F17FE3083120313A800280883160313B8
:102F04009F05FD3083120313A800280883160313BA
:102F14009F05FB3083120313A800280883160313AC
:102F24009F05F73083120313A800280883160313A0
:102F34009F05831203131F14080083120313B001A7
:102F440030080A128A15B4210A168A110130831234
:102F54000313AF002F08B00707303002031CB32F50
:102F6400B42FA22F83160313E80130308312031306
:102F74009000FE30AF002F088C05831603130C1449
:102F84008B170B170630FB00FF30FC007B08831205
:102F940003138E007C088F0008000A168A11C025CE
:102FA4000A168A11A2300A168A113C260A168A11B8
:102FB4008312031329080A168A113C260A168A1159
:102FC4000A168A11C0250A168A11A3300A168A1114
:102FD4003C260A168A110A168A1100260A168A1134
:102FE40083120313AB002B08AC000A168A11C925FF
:0C2FF4000A168A11831203132C0808002F
:02400E00BB3FB6
:00000001FF
