:020000040000FA
:100000000A128A1112280800FE00030E831203133D
:10001000A4000408A5000A08A6007F08A7000A1289
:100020008A119E2D0A128A1115280A128A11FD279B
:100030000A128A11E6000A128A11FE270A128A1190
:10004000E7000A128A11FF270A128A11FD0083179E
:1000500090308400A4300A168A11EB260A128A1105
:100060008313A0308400DC300A168A11EB260A12B2
:100070008A11E001E101E201E301E401E501FB0194
:10008000FC0183010A128A116E2FFF0000308A00E2
:100090007F0882074A280A128A157B2B0A128A15C2
:1000A00066280A128A118F2E0A128A15B02E0A1695
:1000B0008A11962F0A168A11AB2F0A128A151C284C
:1000C000831203133E088039C3004308C8003E086A
:1000D000C3004307C4004408CE00BD1F7028712828
:1000E00072284E144E0803197628772886284E0A5F
:1000F000031D7B287C2884280030BE000030BD0012
:100100000030BC000030BB00BD178E280030BE00A0
:100110000030BD000030BC000030BB004208803918
:10012000C3004308C8064208C3004307C40044088C
:10013000CD00C11F9C289D289E284D144D080319F1
:10014000A228A328B2284D0A031DA728A828B02852
:100150000030C2000030C1000030C0000030BF00DD
:10016000C117BA280030C2000030C1000030C00002
:100170000030BF004D080319BE28BF28C4284E0810
:10018000031DC328C428CD280030BE000030BD00A8
:100190000030BC000030BB00C02B3B08C30043084C
:1001A000A80041080A128A158E200A128A118312A9
:1001B00003132908D4002808D3005308C300C4013E
:1001C000C501C6014608CC004508CB004408CA005A
:1001D0004308C9005408C300C401C501C60146084C
:1001E000D2004508D1004408D0004308CF003C08A5
:1001F000C3004308A80040080A128A158E200A127C
:100200008A11831203132908D4002808D300530845
:10021000C300C401C501C6014308C907440803114E
:100220000318013E03191529CA07450803110318CD
:10023000013E03191C29CB07460803110318013E90
:1002400003192329CC075408C300C401C501C60102
:100250004308CF07440803110318013E031931294D
:10026000D007450803110318013E03193829D107A7
:10027000460803110318013E03193F29D2073D0820
:10028000C3004308A8003F080A128A158E200A12EC
:100290008A11831203132908D4002808D3005308B5
:1002A000C300C401C501C6014308C90744080311BE
:1002B0000318013E03195D29CA07450803110318F5
:1002C000013E03196429CB07460803110318013EB8
:1002D00003196B29CC075408C300C401C501C6012A
:1002E0004308CF07440803110318013E0319792975
:1002F000D007450803110318013E03198029D107CF
:10030000460803110318013E03198729D207083054
:10031000C3000310C90DCA0DCB0DCC0DC30B892929
:100320003C08C3004308A8003F080A128A158E2023
:100330000A128A11831203132908D4002808D30053
:100340005308C3005408C400C501C6014308C907C7
:10035000440803110318013E0319AF29CA074508D1
:1003600003110318013E0319B629CB0746080311F0
:100370000318013E0319BD29CC073B08C3004308FD
:10038000A80040080A128A158E200A128A118312C8
:1003900003132908D4002808D3005308C3005408C5
:1003A000C400C501C6014308C90744080311031866
:1003B000013E0319DC29CA07450803110318013E51
:1003C0000319E329CB07460803110318013E03195B
:1003D000EA29CC070830C3000310C90DCA0DCB0DA4
:1003E000CC0DC30BEC293B08C3004308A8003F0811
:1003F0000A128A158E200A128A1183120313290801
:10040000D4002808D3005308C3005408C400C50111
:10041000C6014308C907440803110318013E031924
:10042000122ACA07450803110318013E0319192AA5
:10043000CB07460803110318013E0319202ACC07F5
:100440003C08C3004308A80041080A128A158E2000
:100450000A128A11831203132908D4002808D30032
:100460005308C3005408C400C501C6014308CF07A0
:10047000440803110318013E03193F2AD007450819
:1004800003110318013E0319462AD1074608031138
:100490000318013E03194D2AD2073D08C300430843
:1004A000A80040080A128A158E200A128A118312A7
:1004B00003132908D4002808D3005308C3005408A4
:1004C000C400C501C6014308CF074408031103183F
:1004D000013E03196C2AD007450803110318013E99
:1004E0000319732AD107460803110318013E0319A3
:1004F0007A2AD2073D08C3004308A80041080A121F
:100500008A158E200A128A11831203132908D40037
:100510002808D3005308C3005408C400C501C6010D
:1005200008300310C30DC40DC50DC60DFF3E031DDD
:10053000912A4308CF07440803110318013E031909
:10054000A22AD007450803110318013E0319A92A5E
:10055000D107460803110318013E0319B02AD20738
:100560004908C3004A08C4004B08C5004C08C6002F
:1005700018300310C60CC50CC40CC30CFF3E031D81
:10058000B92A4308CF07440803110318013E031991
:10059000CA2AD007450803110318013E0319D12ABE
:1005A000D107460803110318013E0319D82AD207C0
:1005B0000830C3000310C90DCA0DCB0DCC0DC30B01
:1005C000DA2A4E084D07C300C401C40D4308823E19
:1005D000D30044080318013EFF3ED4000C2B013029
:1005E000C3000310CF0DD00DD10DD20DC30BF12AD6
:1005F000CC1FFB2AFC2AFD2A4F140130C300031034
:10060000C90DCA0DCB0DCC0DC30BFF2AFF30D3078C
:100610000318D40AFF30D407D11F0F2B102BEF2A59
:10062000CD01CC1F142B152B312BFF304905C300F6
:10063000FF304A05C400FF304B05C5007F304C0534
:10064000C60046084504440443040319282B292BFB
:100650002C2BCD01CD0A312B4F1C2F2B302B312BC6
:10066000292B4D080319352B362B672B0130CF076B
:10067000003003180130D007003003180130D107D3
:10068000003003180130D207521C472B482B672B30
:100690004F08C3005008C4005108C5005208C600E6
:1006A0000130C700460DC60CC50CC40CC30CC70BEB
:1006B000522B4608D2004508D1004408D000430818
:1006C000CF000130D3070318D40A0030D4075408F0
:1006D000803AFF0080307F02031D702BFF305302F1
:1006E000031C732B742B7F2B7F3083120313D200D8
:1006F0008030D1000030D0000030CF00B42B831206
:1007000003135408803AFF0080307F02031D8A2BB8
:100710000130530203188D2B8E2B9A2B003083123D
:100720000313D2000030D1000030D0000030CF00E1
:10073000C801B42B831203135308C3004308CE002F
:10074000FF30CF05FF30D0057F30D1050030D20516
:100750004E1CAB2BAC2BAD2BD1174E08C300031096
:10076000430CC4004408D2004808C3004308D20424
:100770005208BE005108BD005008BC004F08BB0025
:1007800008008312031342088039C3004308CC00D9
:100790004208C3004307C4004408D300C11FD12B43
:1007A000D22BD32B531453080319D72BD82BE82B58
:1007B000530A031DDC2BDD2BE52B0030C20000307B
:1007C000C1000030C0000030BF00C117C201F02BD3
:1007D0000030C2000030C1000030C0000030BF0057
:1007E0003E088039C3004308CC063E08C3004307D7
:1007F000C4004408D400BD1FFE2BFF2B002C541452
:1008000054080319042C052C152C540A031D092C1B
:100810000A2C122C0030BE000030BD000030BC009D
:100820000030BB00BD17BE011D2C0030BE000030E3
:10083000BD000030BC000030BB003E083D043C045D
:100840003B04031D242C252C3E2C0030C20000301C
:10085000C1000030C0000030BF008030C1047F30D4
:10086000C2044C08C3004308C2044208BE00410849
:10087000BD004008BC003F08BB009D2D5308031D70
:10088000422C432C4C2C0030BE000030BD00003008
:10089000BC000030BB009D2D5308C300C4014408B8
:1008A000C60054084302C500031CC60345087F3E2A
:1008B000CD0046080318013E003ECE004208CB00A2
:1008C0004108CA004008C9003F08C8000030C20003
:1008D0000030C1000030C0000030BF000030D20046
:1008E0000030D1000030D0000030CF00D401C22C45
:1008F000540803197C2C7D2C9D2C0130C30003105F
:10090000C80DC90DCA0DCB0DC30B7F2C0130C30020
:100910000310BF0DC00DC10DC20DC30B882CD21F1B
:10092000922C932C942C3F140130C3000310CF0D54
:10093000D00DD10DD20DC30B962C3E084B02031DDA
:10094000AB2C3D084A02031DAB2C3C084902031D99
:10095000AB2C3B084802031CAE2CAF2CBE2C52170C
:100960003B08C8023C08031C3C0FC9023D08031C9D
:100970003D0FCA023E08031C3E0FCB020130C300EC
:100980004308D4071A305402031CC72CC82C782CF7
:100990004B084A04490448040319CF2CD02CEF2CEF
:1009A0004F14EF2C0130C3000310BF0DC00DC10D5B
:1009B000C20DC30BD42CD21FDE2CDF2CE02C3F1435
:1009C0000130C3000310CF0DD00DD10DD20DC30BDC
:1009D000E22CFF30CD070318CE0AFF30CE07C11F2F
:1009E000F22CF32CD22CD401D21FF72CF82C142D7E
:1009F000FF304F05C300FF305005C400FF305105E4
:100A0000C5007F305205C60046084504440443042F
:100A100003190B2D0C2D0F2DD401D40A142D3F1CBE
:100A2000122D132D142D0C2D54080319182D192DCA
:100A30004A2D0130BF07003003180130C0070030D5
:100A400003180130C107003003180130C207421CEF
:100A50002A2D2B2D4A2D3F08C3004008C400410811
:100A6000C5004208C6000130C700460DC60CC50CC3
:100A7000C40CC30CC70B352D4608C2004508C10085
:100A80004408C0004308BF000130CD070318CE0A58
:100A90000030CE074E08803AFF0080307F02031DF1
:100AA000532DFF304D02031C562D572D652DFF3061
:100AB00083120313CD000030CE000030C20000309E
:100AC000C1000030C0000030BF00831203134E0885
:100AD000803AFF0080307F02031D702D01304D02EF
:100AE0000318732D742D812D83120313CD01CE01B4
:100AF0000030C2000030C1000030C0000030BF0034
:100B0000CC01831203134D08C3004308D300531CC8
:100B10008A2D8B2D8D2DC117912D7F30C300430859
:100B2000C1055308C3000310430CC4004408C200AD
:100B30004C08C3004308C204352C08000C1CA12D2E
:100B4000A22D502E7B088E007C088F00FE30A00066
:100B500020088C05FA010630A0002008F0007A0871
:100B60000A168A1181270A128A11A03E8400831373
:100B700000080319BC2DBD2D442E0630831203132B
:100B8000A0002008F0007A080A168A1181270A12AC
:100B90008A11A13E84008313000883120313A1006D
:100BA000840A0008A20021082204031DD82DD92D93
:100BB0002F2E0130A0000630A1002108F0007A0895
:100BC0000A168A1181270A128A11A53E840083120F
:100BD00003132008831380070630A0002008F000CC
:100BE0007A080A168A1181270A128A11A33E840004
:100BF0008313000883120313A100840A0008A200D3
:100C0000210822040319052E062E442E0630A000CA
:100C10002008F0007A080A168A1181270A128A1120
:100C2000A33E84008313000883120313A100840AE7
:100C30000008A2000630A3002308F0007A080A1674
:100C40008A1181270A128A11A13E8400831203139C
:100C5000210883138000840A22088000442E063075
:100C6000A0002008F0007A080A168A1181270A12CB
:100C70008A11A13E84000A3083138002840F003061
:100C8000031C800380028403013083120313A0003D
:100C90002008FA0708307A02031C4F2E502EAB2D85
:100CA0008B1C532E542E822EFD30A00020088B0565
:100CB000722EFD01FD0A0A168A110E270A128A11E8
:100CC0000A168A1141270A128A110A128A15D62198
:100CD0000A128A11822EFD010A128A1501200A12B7
:100CE0008A11822E7D08A000A1012108003A031973
:100CF0007A2E822E2008003A0319592E013A031940
:100D00006B2E822E831203132708FF0026088A0009
:100D100025088400240E8300FE0E7E0E0900831237
:100D200003136308031D952E962E6D2F02300A12B1
:100D30008A15B7200A128A11831203132808831612
:100D40000313DC0083120313290883160313DD0049
:100D5000DE01DF015F0883120313B0008316031363
:100D60005E0883120313AF00831603135D0883121A
:100D70000313AE00831603135C0883120313AD0044
:100D800000300A128A1544270A128A1183120313AB
:100D90003008C2002F08C1002E08C0002D08BF0077
:100DA0004030BE009C30BD007A30BC00E130BB005A
:100DB0000A128A1160200A128A11831203133E0854
:100DC000D8003D08D7003C08D6003B08D5000A12E1
:100DD0008A1525250A128A118312031360088316C7
:100DE0000313E0006007903E84008312031355084C
:100DF00083178000840A5608800060088316031356
:100E0000DC005C07903E84000008DD00840A0008D6
:100E1000DE005D0883120313AD00831603135E0822
:100E200083120313AE00AF01B00100300A128A151D
:100E300044270A128A11831203133008C2002F08B4
:100E4000C1002E08C0002D08BF004130BE00203078
:100E5000BD000030BC000030BB000A128A11C12363
:100E60000A128A11831203133E08D8003D08D700E6
:100E70003C08D6003B08D5000A128A1525250A121F
:100E80008A1183120313600883160313DF005F07C0
:100E9000903E840083120313550883178000840A50
:100EA00056088000013083160313DC005C088312AF
:100EB0000313E0070A306006031D5F2F602F612FC8
:100EC000E0010A128A15A2210A128A11831603135D
:100ED000DC005C0883120313E40008000A168A1180
:100EE00005270A128A110A128A153F200A128A114E
:100EF0000A168A11E4260A128A110A168A11C027D4
:100F00000A128A110A168A115F270A128A110A1216
:100F10008A150D210A128A11003083120313AC00C6
:100F2000AD000030AE00AF0004300A128A15AF24C5
:100F30000A128A11003083120313AC00AD00643032
:100F4000AE000030AF0007300A128A15AF240A1233
:100F50008A11003083120313AC00AD001430AE00D0
:100F60000030AF000A300A128A15AF240A128A1123
:100F7000003083120313AC00AD00E830AE00033044
:100F8000AF000D300A128A15AF240A128A11003000
:100F900083120313AC00AD006430AE000030AF002C
:100FA00001300A128A15AF240A128A110030831206
:100FB0000313AC00AD00C830AE000030AF001030FD
:100FC0000A128A15AF240A128A1100308312031301
:100FD000AC00AD00E830AE000330AF0013300A12B1
:100FE0008A15AF240A128A110A128A15A1250A123B
:100FF0008A11F42F0A128A1112280334033401349F
:10100200831203131014080083120313AB00AA0106
:101012002B1C0C280D2811282808A9002908AA072A
:101022000310A80D0310AB0C2B08031D19281A2856
:1010320009282A080800831203136303031D2228C8
:1010420023283E282E28E101E10A0A168A111A27CE
:101052000A128A153E28E1013E286108A900AA0168
:101062002A08003A031936283E282908003A0319AB
:101072002428013A03192C283E280800DF30831265
:101082000313A8002808831603138705DF30831291
:101092000313A80028088705FB30A8002808831638
:1010A20003138705FB3083120313A8002808870562
:1010B200EF30A8002808831603138605EF30831249
:1010C2000313A800280886050800FF3083120313C3
:1010D200A9000030AA000A128A153D210A128A15B7
:1010E20083120313AD0065302D02031C79287A2880
:1010F2007F283C30AD002D08E5008D28FF30A90087
:101102000030AA000A128A153D210A128A1583129A
:101112000313AD002D08E500080083120313B0008D
:10112200AC01AD012808AA00AB012A08AE002B08C9
:10113200AF00301C9D289E28A4282E08AC07031857
:10114200AD0A2F08AD0701300310AE0DAF0DFF3E03
:10115200031DA5280310B00C3008031DB128B228C6
:101162009A282D08A9002C08A8000800831203134E
:10117200AC00F730AA002A089F05EF30AA002A081F
:101182009F05DF30AA002A089F052C08AA0002301A
:101192000310AA0DFF3E031DC92803102A0DAB0040
:1011A2002B089F041F151F19D728D828D4281E08DA
:1011B200A900831603131E0883120313A800080054
:1011C200831203139F171F17831603131F179F17EB
:1011D200FE3083120313A8002808831603139F0509
:1011E200FD3083120313A8002808831603139F05FA
:1011F200FB3083120313A8002808831603139F05EC
:10120200F73083120313A8002808831603139F05DF
:10121200831203131F14080083120313B001300852
:101222000A128A1518230A128A150130831203132F
:10123200AF002F08B00708303002031C21292229F1
:10124200102983160313D601303083120313900042
:10125200FE30AF002F088C05831603130C148B1776
:101262000B173C30FB00F630FC007B0883120313A3
:101272008E007C088F0008000A168A11F3260A12D3
:101282008A15A2300A168A116F270A128A1583124A
:10129200031329080A168A116F270A128A150A16D9
:1012A2008A11F3260A128A15A3300A168A116F27A9
:1012B2000A128A150A168A1133270A128A1583120C
:1012C2000313AB002B08AC000A168A11FC260A1283
:1012D2008A15831203132C08080083120313941631
:1012E20094153608BA003708BB003808BC00390824
:1012F200BD0002300310BA0DBB0DBC0DBD0DFF3E8B
:10130200031D7B293D08AB003C08AA003B08A9004D
:101312003A08A8000030AF007A30AE001230AD00BB
:101322000030AC000A128A15DE230A128A158312D3
:1013320003132808FF3E831603139300871507162D
:10134200080083120313B501B301B401B5013508D6
:10135200B0003007903E840083170008B100840A71
:101362000008B20033083107B30034080318340A06
:101372003207B4000130B0003008B5070A30350238
:10138200031CC429C529A8290A30A8000030A900D5
:101392003408AB003308AA000A128A1516220A1270
:1013A2008A158312031328080800FE30F40074081B
:1013B200831203139005F801F9010630F400740852
:1013C200F00078080A168A1181270A128A15A33EAC
:1013D200840083130008F500840A0008F600063032
:1013E200F7007708F00078080A168A1181270A1296
:1013F2008A15A13E8400750883138000840A76084A
:1014020080000130F8070318F90A0030F90779085B
:10141200803AFF0080307F02031D112A08307802D3
:10142200031C142A152ADE29080083120313AD01B6
:10143200AE012808290403191F2A202A572AAF01BE
:10144200AF0A2E2A01300310A80DA90DFF3E031D7D
:10145200242A0130AC002C08AF07A91F312A322AF6
:10146200232A01300310AD0DAE0DFF3E031D332ABA
:1014720029082B02031D3F2A28082A02031C422A9C
:10148200432A4A2A2808AA022908031CAB03AB02F2
:101492002D1401300310A90CA80CFF3E031D4B2A8A
:1014A2000130AF02031D562A572A322A2E08A900FC
:1014B2002D08A800080083120313AE01AB1F622A95
:1014C200632A6A2AAA09AB09AA0A0319AB0AAE015E
:1014D200AE0AA91F6D2A6E2A732AA809A909A80AA9
:1014E2000319A90A280829040319782A792AA82A9B
:1014F200AD01AD0A872A01300310A80DA90DFF3EE8
:10150200031D7D2A0130AC002C08AD07A91F8A2AD1
:101512008B2A7C2A29082B02031D912A28082A02D9
:10152200031C942A952A9B2A2808AA022908031C2C
:10153200AB03AB0201300310A90CA80CFF3E031D44
:101542009C2A0130AD02031DA72AA82A8B2A2E0845
:101552000319AC2AAD2AB22AAA09AB09AA0A0319AD
:10156200AB0A2B08A9002A08A8000800831203135B
:10157200AA00DD2A3F30172B0630172B5B30172BC2
:101582004F30172B6630172B6D30172B7D30172BF2
:101592000730172B7F30172B6F30172B7730172B15
:1015A2007C30172B5830172B5E30172B7930172BC6
:1015B2007130172B0030172B2A08A800A90129081F
:1015C200003A0319E52ADB2A2808003A0319BB2A44
:1015D200013A0319BD2A033A0319BF2A013A031932
:1015E200C12A073A0319C32A013A0319C52A033A41
:1015F2000319C72A013A0319C92A0F3A0319CB2A38
:10160200013A0319CD2A033A0319CF2A013A0319E1
:10161200D12A073A0319D32A013A0319D52A033AE0
:101622000319D72A013A0319D92ADB2A080083129F
:101632000313AE000630AC002C08A8002E080A12D4
:101642008A1505200A128A15A03E84008313000819
:10165200031D2C2B2D2B362B023083120313AC00CF
:101662002C0883160313D600362B0630831203137D
:10167200AC002C08A8002E080A128A1505200A12AE
:101682008A15A03E8400831380010630831203135F
:10169200AC002C08A8002E080A128A1505200A128E
:1016A2008A15A13E840083138001840A80010630DA
:1016B20083120313AC002C08A8002E080A128A1504
:1016C20005200A128A15A33E840083138001840A2E
:1016D2008001063083120313AC002C08A8002E08E8
:1016E2000A128A1505200A128A15A53E8400831360
:1016F20080010800831203136308031D812B822BD0
:10170200D82B6508FB3EA900FF3003180030AA0061
:101712002A08803A803C031D902B29086402031892
:10172200932B942B9F2B831203138716FB30A90054
:101732002908870583160313D801DD2B83120313AF
:101742006508053EA900003003180130AA002A08E6
:10175200803AAB0080302B02031DB12B64082902B2
:101762000318B42BB52BC22B831203130715DF30DA
:10177200A90029088705061683160313D801D80A7B
:10178200DD2B8312031364086506031DC92BCA2BC4
:10179200D72BFB30A90029088705DF30A9002908CB
:1017A2008705EF30A90029088605BD2BDD2B0A1617
:1017B2008A1150270A128A15080000308312031377
:1017C200B4000030B3000030B2000030B1002B088A
:1017D2002A04290428040319EF2BF02B3D2CB50110
:1017E200B50A002C0130B0000310A80DA90DAA0DF6
:1017F200AB0DB00BF52B0130B0003008B507AB1FB5
:10180200032C042CF32B0130B0000310B10DB20DE8
:10181200B30DB40DB00B062C2B082F02031D1B2C8D
:101822002A082E02031D1B2C29082D02031D1B2C26
:1018320028082C02031C1E2C1F2C2E2C2808AC025C
:101842002908031C290FAD022A08031C2A0FAE0225
:101852002B08031C2B0FAF02311401300310AB0C09
:10186200AA0CA90CA80CFF3E031D2F2C0130B502B7
:10187200031D3C2C3D2C042C3408AB003308AA0079
:101882003208A9003108A800080083120313AE0130
:10189200A91F4C2C4D2C542CA809A909A80A0319DC
:1018A200A90AAE01AE0AAB1F572C582C612CAA090B
:1018B200AB09AA0A0319AB0A0130AC002C08AE0628
:1018C200AF01B001280829040319682C692CA02C47
:1018D200AD01AD0A772C01300310A80DA90DFF3E12
:1018E200031D6D2C0130AC002C08AD07A91F7A2C0A
:1018F2007B2C6C2C01300310AF0DB00DFF3E031D8D
:101902007C2C29082B02031D882C28082A02031C80
:101912008B2C8C2C932C2808AA022908031CAB03BD
:10192200AB022F1401300310A90CA80CFF3E031DBB
:10193200942C0130AD02031D9F2CA02C7B2C2E0871
:101942000319A42CA52CAA2CAF09B009AF0A0319BC
:10195200B00A3008A9002F08A80008008312031358
:10196200B200B301B82C0130B0003008B307063022
:10197200B0003008A80033080A128A1505200A129E
:101982008A15A03E8400831300080319C92CCA2CAF
:10199200D22C0830831203133302031CD12CD22C15
:1019A200B42C0830831203133306031DD92CDA2C0E
:1019B200DB2C242D3208B0000630B1003108A8001B
:1019C20033080A128A1505200A128A15A03E8400DD
:1019D200831203133008831380000630B0003008EE
:1019E200A80033080A128A1505200A128A15A13E98
:1019F2008400831203132C0883138000840A2D08A9
:101A020080000630B0003008A80033080A128A1598
:101A120005200A128A15A33E8400831203132E089E
:101A220083138000840A2F0880000630B00030083B
:101A3200A80033080A128A1505200A128A15A53E43
:101A42008400831380010800031083120313570DCF
:101A5200580DD9005908DF005F08031D312D322DC2
:101A62003B2D0030D8000030D7000030D6000030C7
:101A7200D500A02D5508D9005608DA005708DB001A
:101A82005808DC001F300310DC0CDB0CDA0CD90C1C
:101A9200FF3E031D442D5908DD005D08DE00D71707
:101AA200FF30D505FF30D605FF30D7050030D80509
:101AB2009630DF02DF1F5E2D5F2D792D5F08803AA1
:101AC200973E0318652D662D672D322D01300310C8
:101AD200D80CD70CD60CD50CFF3E031D682D013057
:101AE200D9005908DF07031D772D782D672D902D1A
:101AF20020305F02031C7E2D7F2D8B2D322D013075
:101B0200D9000310D50DD60DD70DD80DD90B822DC6
:101B12000130DF025F08031D8F2D902D802D5E089E
:101B22000319942D952DA02DD509D609D709D809C9
:101B3200D50A0319D60A0319D70A0319D80A0800C5
:101B420083160313E4010630E100610883120313D4
:101B5200A8008316031364080A128A1505200A12C4
:101B62008A15A53E8400831300080319B92DBA2DE6
:101B72000E2E063083160313E1006108831203134D
:101B8200A8008316031364080A128A1505200A1294
:101B92008A15A03E8400831300080A128A11452088
:101BA2000A128A15063083160313E10061088312B4
:101BB2000313A8008316031364080A128A1505206A
:101BC2000A128A15A53E8400013083138002063072
:101BD20083160313E100610883120313A80083161E
:101BE200031364080A128A1505200A128A15A33EF5
:101BF20084008313000883160313E200840A00089A
:101C0200E30062086304031D072E082E0E2E6408EB
:101C12000A128A1518230A128A1501308316031331
:101C2200E1006108E40708306402031C192E1A2E31
:101C3200A42D0A128A1103200A128A150A168A1181
:101C4200E2260A128A1508009D2E670303192A2E1E
:101C52002B2E302E6603031D2F2E302EAF2EE301C6
:101C6200E30A0330AC002C08E7000330AC002C0878
:101C7200E600AF2E13308316031355028830031982
:101C820054020318452E462E832E83120313670334
:101C9200031D4C2E4D2E622E4B3065020318522E20
:101CA200532E622E0530AC002C08E5078316031371
:101CB200D401D501033083120313AC002C08E700D2
:101CC200AF2E6603031D662E672E7A2E2430650220
:101CD200031C6C2E6D2E7A2E0530E502831603133B
:101CE200D401D501033083120313AC002C08E600A3
:101CF200AF2EC83083160313D4070318D50A003059
:101D0200D507AF2E83120313E30183160313D40105
:101D1200D501FF3083120313A9000030AA00650821
:101D2200AC002C08AB000A168A11DF270A128A15AA
:101D320083120313E101AF2E831203136308AC0075
:101D4200AD012D08003A0319A72EAF2E2C08003A38
:101D52000319262E013A03193B2EAF2E08008312D7
:101D620003136108031DB62EB72E432FC22E64083B
:101D7200B1003108E2002F2F6508B1003108E200FE
:101D82002F2F6308B100B2013208003A0319CA2E9C
:101D92002F2F3108003A0319B82E013A0319BD2E2C
:101DA2002F2F0A30A8000030A9006208B100B2014A
:101DB2003108AA003208AB000A128A1546240A1218
:101DC2008A15831203132808B300330883160313FA
:101DD200DB00831203130516DF30B10031088505DD
:101DE200831603135B080A128A15B7220A128A1590
:101DF20083120313880083160313D901D90A432FD0
:101E02000A30A8000030A9006208B100B20131080E
:101E1200AA003208AB000A128A155C220A128A153D
:101E2200831203132808B300330883160313DA005E
:101E3200831203138516EF30B1003108850583162E
:101E420003135A080A128A15B7220A128A15831234
:101E52000313880083160313D901432F8316031338
:101E6200590883120313B100B2013208003A031970
:101E72003B2F432F3108003A0319D22E013A03199E
:101E8200012F432F080083120313B50035080319ED
:101E92004B2F4C2F602FB01F4F2F502F602F2D092B
:101EA200B7002E09B8002F09B9003009BA00B70AE5
:101EB2000319B80A0319B90A0319BA0A682F3008B4
:101EC200BA002F08B9002E08B8002D08B700300854
:101ED2002F042E042D04031D6F2F702F792F003035
:101EE200B0000030AF000030AE000030AD00FF2F78
:101EF2009630B1003108B6008B2F0130B1003108A5
:101F0200B60701300310BA0CB90CB80CB70CFF3E7F
:101F1200031D832FFE303A05031D902F912F7E2F34
:101F2200AD2F0130B1003108B6070130B7070030DC
:101F320003180130B807003003180130B907003028
:101F420003180130BA0701300310BA0CB90CB80CEF
:101F5200B70CFF3E031DA52FFF303A05031DB22F1C
:101F6200B32F922FBF2F0130B6020130B100031000
:101F7200B70DB80DB90DBA0DB10BB82FB91BC22FE1
:101F8200C32FC92F023036020318C82FC92FB42F0E
:101F92003618CC2FCD2FD52FFF30B705FF30B8051F
:101FA2007F30B905FF30BA050310B60C3608B10010
:101FB200B201B301B40118300310B10DB20DB30D6B
:101FC200B40DFF3E031DDD2F3108B7043208B804FB
:101FD2003308B9043408BA0435080319F12FF22F73
:101FE200F72FB01FF52FF62FF72FBA173A08B000C8
:0E1FF2003908AF003808AE003708AD0008000F
:102DC40063000800831603130615861406140B16F5
:102DD400080064008001840A040603190034040610
:102DE400EC2E0A168A1126270A168A118316031353
:102DF400111408000A168A1126270A168A11831646
:102E04000313111508000A128A15E1200A168A1103
:102E14008316031305150800831203138801EF308A
:102E2400F00070088505DF30F000700885050800A3
:102E3400831203138801EF30A80028088505DF30CA
:102E4400A8002808850508008316031314192B2FDE
:102E54002C2F262F11081F39031D312F322F262F17
:102E64000800831203138C11831603139115831224
:102E74008C1D3D2F3E2F392F8C1113080800DF3095
:102E8400F0007008831203138705FB30F00070080C
:102E94008705EF30F000700886050800DF308312E4
:102EA4000313A80028088705FB30A8002808870515
:102EB400EF30A800280886050800003083120313A9
:102EC400B9000130B8008630B700A030B6000A124D
:102ED4008A156E210A168A11080083120313A800AA
:102EE4000A168A1126270A168A1183120313280840
:102EF40093000A168A1126270A168A110800F2007E
:102F0400F301721C862F872F8B2F7008F100710834
:102F1400F3070310F00D0310F20C7208031D932F36
:102F2400942F832F73080800831203136308031D6F
:102F34009C2F9D2FAA2F831603135808031DA32F1C
:102F4400A42FAA2F103083120313A8002808860682
:102F54000800831203130619B02FB12FB42FE70111
:102F6400E70ABA2F8618B72FB82FBA2FE601E60A58
:102F74000A128A1525260A168A11080083160313D5
:102F84008801831203138801EF30A80028088316F0
:102F940003138505EF3083120313A8002808850561
:102FA400DF30A8002808831603138505DF30831259
:102FB4000313A8002808850508000A168A11F326B9
:102FC4000A168A11A2300A168A116F270A168A1164
:102FD4008312031329080A168A116F270A168A1105
:102FE400831203132B080A168A116F270A168A11F3
:0C2FF4000A168A11FC260A168A11080031
:02400E00BB3FB6
:00000001FF
